{
  "contractName": "DriverManager",
  "abi": [
    {
      "anonymous": false,
      "inputs": [
        {
          "indexed": true,
          "internalType": "address",
          "name": "driverAddress",
          "type": "address"
        },
        {
          "indexed": false,
          "internalType": "bool",
          "name": "isAvailable",
          "type": "bool"
        }
      ],
      "name": "DriverAvailabilityUpdated",
      "type": "event"
    },
    {
      "anonymous": false,
      "inputs": [
        {
          "indexed": true,
          "internalType": "address",
          "name": "driverAddress",
          "type": "address"
        },
        {
          "indexed": false,
          "internalType": "string",
          "name": "name",
          "type": "string"
        }
      ],
      "name": "DriverRegistered",
      "type": "event"
    },
    {
      "inputs": [
        {
          "internalType": "uint256",
          "name": "",
          "type": "uint256"
        }
      ],
      "name": "driverList",
      "outputs": [
        {
          "internalType": "address",
          "name": "",
          "type": "address"
        }
      ],
      "stateMutability": "view",
      "type": "function",
      "constant": true
    },
    {
      "inputs": [
        {
          "internalType": "address",
          "name": "",
          "type": "address"
        }
      ],
      "name": "drivers",
      "outputs": [
        {
          "internalType": "string",
          "name": "name",
          "type": "string"
        },
        {
          "internalType": "string",
          "name": "vehicleInfo",
          "type": "string"
        },
        {
          "internalType": "string",
          "name": "licenseNumber",
          "type": "string"
        },
        {
          "internalType": "uint256",
          "name": "totalEarnings",
          "type": "uint256"
        },
        {
          "internalType": "bool",
          "name": "isRegistered",
          "type": "bool"
        },
        {
          "internalType": "bool",
          "name": "isAvailable",
          "type": "bool"
        }
      ],
      "stateMutability": "view",
      "type": "function",
      "constant": true
    },
    {
      "stateMutability": "payable",
      "type": "receive",
      "payable": true
    },
    {
      "inputs": [
        {
          "internalType": "string",
          "name": "_name",
          "type": "string"
        },
        {
          "internalType": "string",
          "name": "_vehicleInfo",
          "type": "string"
        },
        {
          "internalType": "string",
          "name": "_licenseNumber",
          "type": "string"
        }
      ],
      "name": "registerDriver",
      "outputs": [],
      "stateMutability": "nonpayable",
      "type": "function"
    },
    {
      "inputs": [
        {
          "internalType": "address",
          "name": "_driverAddress",
          "type": "address"
        }
      ],
      "name": "isDriverRegistered",
      "outputs": [
        {
          "internalType": "bool",
          "name": "",
          "type": "bool"
        }
      ],
      "stateMutability": "view",
      "type": "function",
      "constant": true
    },
    {
      "inputs": [
        {
          "internalType": "address",
          "name": "_driverAddress",
          "type": "address"
        }
      ],
      "name": "getDriverDetails",
      "outputs": [
        {
          "internalType": "string",
          "name": "name",
          "type": "string"
        },
        {
          "internalType": "string",
          "name": "vehicleInfo",
          "type": "string"
        },
        {
          "internalType": "uint256",
          "name": "totalEarnings",
          "type": "uint256"
        }
      ],
      "stateMutability": "view",
      "type": "function",
      "constant": true
    },
    {
      "inputs": [
        {
          "internalType": "bool",
          "name": "_isAvailable",
          "type": "bool"
        }
      ],
      "name": "setDriverAvailability",
      "outputs": [],
      "stateMutability": "nonpayable",
      "type": "function"
    },
    {
      "inputs": [
        {
          "internalType": "address",
          "name": "_driverAddress",
          "type": "address"
        },
        {
          "internalType": "uint256",
          "name": "_amount",
          "type": "uint256"
        }
      ],
      "name": "addEarnings",
      "outputs": [],
      "stateMutability": "nonpayable",
      "type": "function"
    },
    {
      "inputs": [
        {
          "internalType": "address payable",
          "name": "_driverAddress",
          "type": "address"
        }
      ],
      "name": "transferEarnings",
      "outputs": [],
      "stateMutability": "nonpayable",
      "type": "function"
    }
  ],
  "bytecode": "0x608060405234801561000f575f80fd5b506117148061001d5f395ff3fe60806040526004361061007e575f3560e01c806398a3f6c61161004d57806398a3f6c6146101425780639bb577001461017e578063b98c0cc1146101ba578063f769e2b5146101e257610085565b80632d43f876146100895780634aa60186146100b157806357f8dc96146100f25780638aefd2451461011a57610085565b3661008557005b5f80fd5b348015610094575f80fd5b506100af60048036038101906100aa9190610d2b565b610220565b005b3480156100bc575f80fd5b506100d760048036038101906100d29190610d69565b610304565b6040516100e996959493929190610e47565b60405180910390f35b3480156100fd575f80fd5b5061011860048036038101906101139190610ef6565b6104e6565b005b348015610125575f80fd5b50610140600480360381019061013b919061104d565b61063a565b005b34801561014d575f80fd5b50610168600480360381019061016391906110f1565b610873565b604051610175919061112b565b60405180910390f35b348015610189575f80fd5b506101a4600480360381019061019f9190610d69565b6108ae565b6040516101b19190611144565b60405180910390f35b3480156101c5575f80fd5b506101e060048036038101906101db9190611187565b610902565b005b3480156101ed575f80fd5b5061020860048036038101906102039190610d69565b610a35565b604051610217939291906111b2565b60405180910390f35b5f808373ffffffffffffffffffffffffffffffffffffffff1673ffffffffffffffffffffffffffffffffffffffff1681526020019081526020015f206004015f9054906101000a900460ff166102ab576040517f08c379a00000000000000000000000000000000000000000000000000000000081526004016102a29061123f565b60405180910390fd5b805f808473ffffffffffffffffffffffffffffffffffffffff1673ffffffffffffffffffffffffffffffffffffffff1681526020019081526020015f206003015f8282546102f9919061128a565b925050819055505050565b5f602052805f5260405f205f91509050805f018054610322906112ea565b80601f016020809104026020016040519081016040528092919081815260200182805461034e906112ea565b80156103995780601f1061037057610100808354040283529160200191610399565b820191905f5260205f20905b81548152906001019060200180831161037c57829003601f168201915b5050505050908060010180546103ae906112ea565b80601f01602080910402602001604051908101604052809291908181526020018280546103da906112ea565b80156104255780601f106103fc57610100808354040283529160200191610425565b820191905f5260205f20905b81548152906001019060200180831161040857829003601f168201915b50505050509080600201805461043a906112ea565b80601f0160208091040260200160405190810160405280929190818152602001828054610466906112ea565b80156104b15780601f10610488576101008083540402835291602001916104b1565b820191905f5260205f20905b81548152906001019060200180831161049457829003601f168201915b505050505090806003015490806004015f9054906101000a900460ff16908060040160019054906101000a900460ff16905086565b5f805f8373ffffffffffffffffffffffffffffffffffffffff1673ffffffffffffffffffffffffffffffffffffffff1681526020019081526020015f206003015490505f811161056b576040517f08c379a000000000000000000000000000000000000000000000000000000000815260040161056290611364565b60405180910390fd5b804710156105ae576040517f08c379a00000000000000000000000000000000000000000000000000000000081526004016105a5906113cc565b60405180910390fd5b8173ffffffffffffffffffffffffffffffffffffffff166108fc8290811502906040515f60405180830381858888f193505050501580156105f1573d5f803e3d5ffd5b505f805f8473ffffffffffffffffffffffffffffffffffffffff1673ffffffffffffffffffffffffffffffffffffffff1681526020019081526020015f20600301819055505050565b5f803373ffffffffffffffffffffffffffffffffffffffff1673ffffffffffffffffffffffffffffffffffffffff1681526020019081526020015f206004015f9054906101000a900460ff16156106c6576040517f08c379a00000000000000000000000000000000000000000000000000000000081526004016106bd90611434565b60405180910390fd5b6040518060c001604052808481526020018381526020018281526020015f81526020016001151581526020015f15158152505f803373ffffffffffffffffffffffffffffffffffffffff1673ffffffffffffffffffffffffffffffffffffffff1681526020019081526020015f205f820151815f01908161074791906115ef565b50602082015181600101908161075d91906115ef565b50604082015181600201908161077391906115ef565b50606082015181600301556080820151816004015f6101000a81548160ff02191690831515021790555060a08201518160040160016101000a81548160ff021916908315150217905550905050600133908060018154018082558091505060019003905f5260205f20015f9091909190916101000a81548173ffffffffffffffffffffffffffffffffffffffff021916908373ffffffffffffffffffffffffffffffffffffffff1602179055503373ffffffffffffffffffffffffffffffffffffffff167f9b956fafd6b420070aaa3307dcf792c7a34a3118d4271ee745e1472b281a2f1f8460405161086691906116be565b60405180910390a2505050565b60018181548110610882575f80fd5b905f5260205f20015f915054906101000a900473ffffffffffffffffffffffffffffffffffffffff1681565b5f805f8373ffffffffffffffffffffffffffffffffffffffff1673ffffffffffffffffffffffffffffffffffffffff1681526020019081526020015f206004015f9054906101000a900460ff169050919050565b5f803373ffffffffffffffffffffffffffffffffffffffff1673ffffffffffffffffffffffffffffffffffffffff1681526020019081526020015f206004015f9054906101000a900460ff1661098d576040517f08c379a00000000000000000000000000000000000000000000000000000000081526004016109849061123f565b60405180910390fd5b805f803373ffffffffffffffffffffffffffffffffffffffff1673ffffffffffffffffffffffffffffffffffffffff1681526020019081526020015f2060040160016101000a81548160ff0219169083151502179055503373ffffffffffffffffffffffffffffffffffffffff167f3672b36144f67c28908f397e752824646f236f69becca45f8a3e92dd85e3a21d82604051610a2a9190611144565b60405180910390a250565b6060805f805f808673ffffffffffffffffffffffffffffffffffffffff1673ffffffffffffffffffffffffffffffffffffffff1681526020019081526020015f206040518060c00160405290815f82018054610a90906112ea565b80601f0160208091040260200160405190810160405280929190818152602001828054610abc906112ea565b8015610b075780601f10610ade57610100808354040283529160200191610b07565b820191905f5260205f20905b815481529060010190602001808311610aea57829003601f168201915b50505050508152602001600182018054610b20906112ea565b80601f0160208091040260200160405190810160405280929190818152602001828054610b4c906112ea565b8015610b975780601f10610b6e57610100808354040283529160200191610b97565b820191905f5260205f20905b815481529060010190602001808311610b7a57829003601f168201915b50505050508152602001600282018054610bb0906112ea565b80601f0160208091040260200160405190810160405280929190818152602001828054610bdc906112ea565b8015610c275780601f10610bfe57610100808354040283529160200191610c27565b820191905f5260205f20905b815481529060010190602001808311610c0a57829003601f168201915b5050505050815260200160038201548152602001600482015f9054906101000a900460ff161515151581526020016004820160019054906101000a900460ff1615151515815250509050805f015181602001518260600151935093509350509193909250565b5f604051905090565b5f80fd5b5f80fd5b5f73ffffffffffffffffffffffffffffffffffffffff82169050919050565b5f610cc782610c9e565b9050919050565b610cd781610cbd565b8114610ce1575f80fd5b50565b5f81359050610cf281610cce565b92915050565b5f819050919050565b610d0a81610cf8565b8114610d14575f80fd5b50565b5f81359050610d2581610d01565b92915050565b5f8060408385031215610d4157610d40610c96565b5b5f610d4e85828601610ce4565b9250506020610d5f85828601610d17565b9150509250929050565b5f60208284031215610d7e57610d7d610c96565b5b5f610d8b84828501610ce4565b91505092915050565b5f81519050919050565b5f82825260208201905092915050565b5f5b83811015610dcb578082015181840152602081019050610db0565b5f8484015250505050565b5f601f19601f8301169050919050565b5f610df082610d94565b610dfa8185610d9e565b9350610e0a818560208601610dae565b610e1381610dd6565b840191505092915050565b610e2781610cf8565b82525050565b5f8115159050919050565b610e4181610e2d565b82525050565b5f60c0820190508181035f830152610e5f8189610de6565b90508181036020830152610e738188610de6565b90508181036040830152610e878187610de6565b9050610e966060830186610e1e565b610ea36080830185610e38565b610eb060a0830184610e38565b979650505050505050565b5f610ec582610c9e565b9050919050565b610ed581610ebb565b8114610edf575f80fd5b50565b5f81359050610ef081610ecc565b92915050565b5f60208284031215610f0b57610f0a610c96565b5b5f610f1884828501610ee2565b91505092915050565b5f80fd5b5f80fd5b7f4e487b71000000000000000000000000000000000000000000000000000000005f52604160045260245ffd5b610f5f82610dd6565b810181811067ffffffffffffffff82111715610f7e57610f7d610f29565b5b80604052505050565b5f610f90610c8d565b9050610f9c8282610f56565b919050565b5f67ffffffffffffffff821115610fbb57610fba610f29565b5b610fc482610dd6565b9050602081019050919050565b828183375f83830152505050565b5f610ff1610fec84610fa1565b610f87565b90508281526020810184848401111561100d5761100c610f25565b5b611018848285610fd1565b509392505050565b5f82601f83011261103457611033610f21565b5b8135611044848260208601610fdf565b91505092915050565b5f805f6060848603121561106457611063610c96565b5b5f84013567ffffffffffffffff81111561108157611080610c9a565b5b61108d86828701611020565b935050602084013567ffffffffffffffff8111156110ae576110ad610c9a565b5b6110ba86828701611020565b925050604084013567ffffffffffffffff8111156110db576110da610c9a565b5b6110e786828701611020565b9150509250925092565b5f6020828403121561110657611105610c96565b5b5f61111384828501610d17565b91505092915050565b61112581610cbd565b82525050565b5f60208201905061113e5f83018461111c565b92915050565b5f6020820190506111575f830184610e38565b92915050565b61116681610e2d565b8114611170575f80fd5b50565b5f813590506111818161115d565b92915050565b5f6020828403121561119c5761119b610c96565b5b5f6111a984828501611173565b91505092915050565b5f6060820190508181035f8301526111ca8186610de6565b905081810360208301526111de8185610de6565b90506111ed6040830184610e1e565b949350505050565b7f447269766572206e6f74207265676973746572656400000000000000000000005f82015250565b5f611229601583610d9e565b9150611234826111f5565b602082019050919050565b5f6020820190508181035f8301526112568161121d565b9050919050565b7f4e487b71000000000000000000000000000000000000000000000000000000005f52601160045260245ffd5b5f61129482610cf8565b915061129f83610cf8565b92508282019050808211156112b7576112b661125d565b5b92915050565b7f4e487b71000000000000000000000000000000000000000000000000000000005f52602260045260245ffd5b5f600282049050600182168061130157607f821691505b602082108103611314576113136112bd565b5b50919050565b7f4e6f206561726e696e677320746f207472616e736665720000000000000000005f82015250565b5f61134e601783610d9e565b91506113598261131a565b602082019050919050565b5f6020820190508181035f83015261137b81611342565b9050919050565b7f496e73756666696369656e7420636f6e74726163742062616c616e63650000005f82015250565b5f6113b6601d83610d9e565b91506113c182611382565b602082019050919050565b5f6020820190508181035f8301526113e3816113aa565b9050919050565b7f44726976657220616c72656164792072656769737465726564000000000000005f82015250565b5f61141e601983610d9e565b9150611429826113ea565b602082019050919050565b5f6020820190508181035f83015261144b81611412565b9050919050565b5f819050815f5260205f209050919050565b5f6020601f8301049050919050565b5f82821b905092915050565b5f600883026114ae7fffffffffffffffffffffffffffffffffffffffffffffffffffffffffffffffff82611473565b6114b88683611473565b95508019841693508086168417925050509392505050565b5f819050919050565b5f6114f36114ee6114e984610cf8565b6114d0565b610cf8565b9050919050565b5f819050919050565b61150c836114d9565b611520611518826114fa565b84845461147f565b825550505050565b5f90565b611534611528565b61153f818484611503565b505050565b5b81811015611562576115575f8261152c565b600181019050611545565b5050565b601f8211156115a75761157881611452565b61158184611464565b81016020851015611590578190505b6115a461159c85611464565b830182611544565b50505b505050565b5f82821c905092915050565b5f6115c75f19846008026115ac565b1980831691505092915050565b5f6115df83836115b8565b9150826002028217905092915050565b6115f882610d94565b67ffffffffffffffff81111561161157611610610f29565b5b61161b82546112ea565b611626828285611566565b5f60209050601f831160018114611657575f8415611645578287015190505b61164f85826115d4565b8655506116b6565b601f19841661166586611452565b5f5b8281101561168c57848901518255600182019150602085019450602081019050611667565b868310156116a957848901516116a5601f8916826115b8565b8355505b6001600288020188555050505b505050505050565b5f6020820190508181035f8301526116d68184610de6565b90509291505056fea264697066735822122047ee435e88b051d24af527a5cab678e91284e6024599eda05bc384703d78a54a64736f6c63430008150033",
  "immutableReferences": {},
  "source": "// SPDX-License-Identifier: MIT\npragma solidity ^0.8.0;\n\ncontract DriverManager {\n    \n    struct Driver {\n        string name;\n        string vehicleInfo;\n        string licenseNumber;\n        uint totalEarnings;\n        bool isRegistered;\n        bool isAvailable;\n    }\n\n    mapping(address => Driver) public drivers;\n    address[] public driverList;\n\n    event DriverRegistered(address indexed driverAddress, string name);\n    event DriverAvailabilityUpdated(address indexed driverAddress, bool isAvailable);\n    \n    // Register a new driver\n    function registerDriver(\n        string memory _name,\n        string memory _vehicleInfo,\n        string memory _licenseNumber\n    ) public {\n        require(!drivers[msg.sender].isRegistered, \"Driver already registered\");\n\n        // Create a new driver and store it\n        drivers[msg.sender] = Driver({\n            name: _name,\n            vehicleInfo: _vehicleInfo,\n            licenseNumber: _licenseNumber,\n            totalEarnings: 0,\n            isRegistered: true,\n            isAvailable: false\n        });\n\n        driverList.push(msg.sender);\n        emit DriverRegistered(msg.sender, _name);\n    }\n\n    // Check if driver is registered\n    function isDriverRegistered(address _driverAddress) public view returns (bool) {\n        return drivers[_driverAddress].isRegistered;\n    }\n\n    // Get driver details\n    function getDriverDetails(address _driverAddress) public view returns (\n        string memory name,\n        string memory vehicleInfo,\n        uint totalEarnings\n    ) {\n        Driver memory driver = drivers[_driverAddress];\n        return (\n            driver.name,\n            driver.vehicleInfo,\n            driver.totalEarnings\n        );\n    }\n\n    // Update driver availability\n    function setDriverAvailability(bool _isAvailable) public {\n        require(drivers[msg.sender].isRegistered, \"Driver not registered\");\n        drivers[msg.sender].isAvailable = _isAvailable;\n        emit DriverAvailabilityUpdated(msg.sender, _isAvailable);\n    }\n\n    // Add earnings to the driver\n    function addEarnings(address _driverAddress, uint _amount) public {\n        require(drivers[_driverAddress].isRegistered, \"Driver not registered\");\n        drivers[_driverAddress].totalEarnings += _amount;\n    }\n\n    // Transfer earnings to driver\n    function transferEarnings(address payable _driverAddress) public {\n        uint amount = drivers[_driverAddress].totalEarnings;\n        require(amount > 0, \"No earnings to transfer\");\n        require(address(this).balance >= amount, \"Insufficient contract balance\");\n\n        // Transfer the earnings to the driver\n        _driverAddress.transfer(amount);\n        drivers[_driverAddress].totalEarnings = 0;\n    }\n\n    // Receive ether for earnings (simple deposit function)\n    receive() external payable {\n        // Contract can receive ether (for example, earnings from riders)\n    }\n}",
  "sourcePath": "/Users/dani/Desktop/csc196d/196-BlockChain/contracts/DriverManager.sol",
  "compiler": {
    "name": "solc",
    "version": "0.8.21+commit.d9974bed.Emscripten.clang"
  },
  "schemaVersion": "3.4.16",
  "updatedAt": "2025-04-24T22:07:02.711Z",
  "networkType": "ethereum",
  "devdoc": {
    "kind": "dev",
    "methods": {},
    "version": 1
  },
  "userdoc": {
    "kind": "user",
    "methods": {},
    "version": 1
  }
}