{
  "contractName": "DriverManager",
  "abi": [
    {
      "anonymous": false,
      "inputs": [
        {
          "indexed": true,
          "internalType": "address",
          "name": "driverAddress",
          "type": "address"
        },
        {
          "indexed": false,
          "internalType": "bool",
          "name": "isAvailable",
          "type": "bool"
        }
      ],
      "name": "DriverAvailabilityUpdated",
      "type": "event"
    },
    {
      "anonymous": false,
      "inputs": [
        {
          "indexed": true,
          "internalType": "address",
          "name": "driverAddress",
          "type": "address"
        },
        {
          "indexed": false,
          "internalType": "string",
          "name": "name",
          "type": "string"
        }
      ],
      "name": "DriverRegistered",
      "type": "event"
    },
    {
      "anonymous": false,
      "inputs": [
        {
          "indexed": true,
          "internalType": "address",
          "name": "rider",
          "type": "address"
        },
        {
          "indexed": false,
          "internalType": "string",
          "name": "pickup",
          "type": "string"
        },
        {
          "indexed": false,
          "internalType": "string",
          "name": "destination",
          "type": "string"
        }
      ],
      "name": "RideRequested",
      "type": "event"
    },
    {
      "inputs": [
        {
          "internalType": "uint256",
          "name": "",
          "type": "uint256"
        }
      ],
      "name": "driverList",
      "outputs": [
        {
          "internalType": "address",
          "name": "",
          "type": "address"
        }
      ],
      "stateMutability": "view",
      "type": "function",
      "constant": true
    },
    {
      "inputs": [
        {
          "internalType": "address",
          "name": "",
          "type": "address"
        }
      ],
      "name": "drivers",
      "outputs": [
        {
          "internalType": "string",
          "name": "name",
          "type": "string"
        },
        {
          "internalType": "string",
          "name": "vehicleInfo",
          "type": "string"
        },
        {
          "internalType": "string",
          "name": "licenseNumber",
          "type": "string"
        },
        {
          "internalType": "uint256",
          "name": "totalEarnings",
          "type": "uint256"
        },
        {
          "internalType": "bool",
          "name": "isRegistered",
          "type": "bool"
        },
        {
          "internalType": "bool",
          "name": "isAvailable",
          "type": "bool"
        },
        {
          "internalType": "int256",
          "name": "latitude",
          "type": "int256"
        },
        {
          "internalType": "int256",
          "name": "longitude",
          "type": "int256"
        }
      ],
      "stateMutability": "view",
      "type": "function",
      "constant": true
    },
    {
      "inputs": [],
      "name": "rideCounter",
      "outputs": [
        {
          "internalType": "uint256",
          "name": "",
          "type": "uint256"
        }
      ],
      "stateMutability": "view",
      "type": "function",
      "constant": true
    },
    {
      "inputs": [
        {
          "internalType": "uint256",
          "name": "",
          "type": "uint256"
        }
      ],
      "name": "rides",
      "outputs": [
        {
          "internalType": "address",
          "name": "rider",
          "type": "address"
        },
        {
          "internalType": "string",
          "name": "pickupLocation",
          "type": "string"
        },
        {
          "internalType": "string",
          "name": "destination",
          "type": "string"
        },
        {
          "internalType": "uint256",
          "name": "fare",
          "type": "uint256"
        },
        {
          "internalType": "bool",
          "name": "isCompleted",
          "type": "bool"
        }
      ],
      "stateMutability": "view",
      "type": "function",
      "constant": true
    },
    {
      "stateMutability": "payable",
      "type": "receive",
      "payable": true
    },
    {
      "inputs": [
        {
          "internalType": "string",
          "name": "_name",
          "type": "string"
        },
        {
          "internalType": "string",
          "name": "_vehicleInfo",
          "type": "string"
        },
        {
          "internalType": "string",
          "name": "_licenseNumber",
          "type": "string"
        }
      ],
      "name": "registerDriver",
      "outputs": [],
      "stateMutability": "nonpayable",
      "type": "function"
    },
    {
      "inputs": [
        {
          "internalType": "address",
          "name": "_driverAddress",
          "type": "address"
        }
      ],
      "name": "isDriverRegistered",
      "outputs": [
        {
          "internalType": "bool",
          "name": "",
          "type": "bool"
        }
      ],
      "stateMutability": "view",
      "type": "function",
      "constant": true
    },
    {
      "inputs": [
        {
          "internalType": "address",
          "name": "_driverAddress",
          "type": "address"
        }
      ],
      "name": "getDriverDetails",
      "outputs": [
        {
          "internalType": "string",
          "name": "name",
          "type": "string"
        },
        {
          "internalType": "string",
          "name": "vehicleInfo",
          "type": "string"
        },
        {
          "internalType": "uint256",
          "name": "totalEarnings",
          "type": "uint256"
        }
      ],
      "stateMutability": "view",
      "type": "function",
      "constant": true
    },
    {
      "inputs": [
        {
          "internalType": "string",
          "name": "pickup",
          "type": "string"
        },
        {
          "internalType": "string",
          "name": "destination",
          "type": "string"
        }
      ],
      "name": "requestRide",
      "outputs": [],
      "stateMutability": "nonpayable",
      "type": "function"
    },
    {
      "inputs": [
        {
          "internalType": "bool",
          "name": "_isAvailable",
          "type": "bool"
        }
      ],
      "name": "setDriverAvailability",
      "outputs": [],
      "stateMutability": "nonpayable",
      "type": "function"
    },
    {
      "inputs": [
        {
          "internalType": "address",
          "name": "_driverAddress",
          "type": "address"
        },
        {
          "internalType": "uint256",
          "name": "_amount",
          "type": "uint256"
        }
      ],
      "name": "addEarnings",
      "outputs": [],
      "stateMutability": "nonpayable",
      "type": "function"
    },
    {
      "inputs": [
        {
          "internalType": "address payable",
          "name": "_driverAddress",
          "type": "address"
        }
      ],
      "name": "transferEarnings",
      "outputs": [],
      "stateMutability": "nonpayable",
      "type": "function"
    },
    {
      "inputs": [
        {
          "internalType": "uint256",
          "name": "rideId",
          "type": "uint256"
        }
      ],
      "name": "acceptRide",
      "outputs": [],
      "stateMutability": "nonpayable",
      "type": "function"
    },
    {
      "inputs": [
        {
          "internalType": "uint256",
          "name": "rideId",
          "type": "uint256"
        }
      ],
      "name": "completeRide",
      "outputs": [],
      "stateMutability": "nonpayable",
      "type": "function"
    },
    {
      "inputs": [],
      "name": "getActiveRideRequests",
      "outputs": [
        {
          "components": [
            {
              "internalType": "uint256[]",
              "name": "rideIds",
              "type": "uint256[]"
            },
            {
              "internalType": "address[]",
              "name": "riders",
              "type": "address[]"
            },
            {
              "internalType": "string[]",
              "name": "pickups",
              "type": "string[]"
            },
            {
              "internalType": "string[]",
              "name": "destinations",
              "type": "string[]"
            },
            {
              "internalType": "uint256[]",
              "name": "fares",
              "type": "uint256[]"
            }
          ],
          "internalType": "struct DriverManager.ActiveRides",
          "name": "",
          "type": "tuple"
        }
      ],
      "stateMutability": "view",
      "type": "function",
      "constant": true
    },
    {
      "inputs": [
        {
          "internalType": "int256",
          "name": "latitude",
          "type": "int256"
        },
        {
          "internalType": "int256",
          "name": "longitude",
          "type": "int256"
        }
      ],
      "name": "updateDriverLocation",
      "outputs": [],
      "stateMutability": "nonpayable",
      "type": "function"
    }
  ],
  "bytecode": "0x608060405234801561000f575f80fd5b50612bc68061001d5f395ff3fe6080604052600436106100eb575f3560e01c80639bb5770011610089578063c416dd0b11610058578063c416dd0b1461030d578063c51562cb14610335578063ed3770cf1461035d578063f769e2b514610385576100f2565b80639bb5770014610257578063ac4bfb0314610293578063b10fefc0146102bb578063b98c0cc1146102e5576100f2565b80635205f112116100c55780635205f1121461018b57806357f8dc96146101cb5780638aefd245146101f357806398a3f6c61461021b576100f2565b80630493e533146100f65780632d43f876146101205780634aa6018614610148576100f2565b366100f257005b5f80fd5b348015610101575f80fd5b5061010a6103c3565b6040516101179190611e96565b60405180910390f35b34801561012b575f80fd5b5061014660048036038101906101419190611f1b565b61087d565b005b348015610153575f80fd5b5061016e60048036038101906101699190611f59565b610961565b60405161018298979695949392919061200d565b60405180910390f35b348015610196575f80fd5b506101b160048036038101906101ac919061209e565b610b4f565b6040516101c29594939291906120d8565b60405180910390f35b3480156101d6575f80fd5b506101f160048036038101906101ec9190612172565b610cb8565b005b3480156101fe575f80fd5b50610219600480360381019061021491906122c9565b610e0c565b005b348015610226575f80fd5b50610241600480360381019061023c919061209e565b611066565b60405161024e919061236d565b60405180910390f35b348015610262575f80fd5b5061027d60048036038101906102789190611f59565b6110a1565b60405161028a9190612386565b60405180910390f35b34801561029e575f80fd5b506102b960048036038101906102b4919061239f565b6110f5565b005b3480156102c6575f80fd5b506102cf61124e565b6040516102dc9190612415565b60405180910390f35b3480156102f0575f80fd5b5061030b60048036038101906103069190612458565b611254565b005b348015610318575f80fd5b50610333600480360381019061032e919061209e565b611387565b005b348015610340575f80fd5b5061035b6004803603810190610356919061209e565b611548565b005b348015610368575f80fd5b50610383600480360381019061037e91906124ad565b611768565b005b348015610390575f80fd5b506103ab60048036038101906103a69190611f59565b61187f565b6040516103ba939291906124eb565b60405180910390f35b6103cb611aec565b5f805b60035481101561041f5760015f8281526020019081526020015f206004015f9054906101000a900460ff1661040c5781806104089061255b565b9250505b80806104179061255b565b9150506103ce565b50610428611aec565b8167ffffffffffffffff811115610442576104416121a5565b5b6040519080825280602002602001820160405280156104705781602001602082028036833780820191505090505b50815f01819052508167ffffffffffffffff811115610492576104916121a5565b5b6040519080825280602002602001820160405280156104c05781602001602082028036833780820191505090505b5081602001819052508167ffffffffffffffff8111156104e3576104e26121a5565b5b60405190808252806020026020018201604052801561051657816020015b60608152602001906001900390816105015790505b5081604001819052508167ffffffffffffffff811115610539576105386121a5565b5b60405190808252806020026020018201604052801561056c57816020015b60608152602001906001900390816105575790505b5081606001819052508167ffffffffffffffff81111561058f5761058e6121a5565b5b6040519080825280602002602001820160405280156105bd5781602001602082028036833780820191505090505b5081608001819052505f805b6003548110156108735760015f8281526020019081526020015f206004015f9054906101000a900460ff166108605780835f0151838151811061060f5761060e6125a2565b5b60200260200101818152505060015f8281526020019081526020015f205f015f9054906101000a900473ffffffffffffffffffffffffffffffffffffffff1683602001518381518110610665576106646125a2565b5b602002602001019073ffffffffffffffffffffffffffffffffffffffff16908173ffffffffffffffffffffffffffffffffffffffff168152505060015f8281526020019081526020015f2060010180546106be906125fc565b80601f01602080910402602001604051908101604052809291908181526020018280546106ea906125fc565b80156107355780601f1061070c57610100808354040283529160200191610735565b820191905f5260205f20905b81548152906001019060200180831161071857829003601f168201915b505050505083604001518381518110610751576107506125a2565b5b602002602001018190525060015f8281526020019081526020015f20600201805461077b906125fc565b80601f01602080910402602001604051908101604052809291908181526020018280546107a7906125fc565b80156107f25780601f106107c9576101008083540402835291602001916107f2565b820191905f5260205f20905b8154815290600101906020018083116107d557829003601f168201915b50505050508360600151838151811061080e5761080d6125a2565b5b602002602001018190525060015f8281526020019081526020015f206003015483608001518381518110610845576108446125a2565b5b602002602001018181525050818061085c9061255b565b9250505b808061086b9061255b565b9150506105c9565b5081935050505090565b5f808373ffffffffffffffffffffffffffffffffffffffff1673ffffffffffffffffffffffffffffffffffffffff1681526020019081526020015f206004015f9054906101000a900460ff16610908576040517f08c379a00000000000000000000000000000000000000000000000000000000081526004016108ff90612676565b60405180910390fd5b805f808473ffffffffffffffffffffffffffffffffffffffff1673ffffffffffffffffffffffffffffffffffffffff1681526020019081526020015f206003015f8282546109569190612694565b925050819055505050565b5f602052805f5260405f205f91509050805f01805461097f906125fc565b80601f01602080910402602001604051908101604052809291908181526020018280546109ab906125fc565b80156109f65780601f106109cd576101008083540402835291602001916109f6565b820191905f5260205f20905b8154815290600101906020018083116109d957829003601f168201915b505050505090806001018054610a0b906125fc565b80601f0160208091040260200160405190810160405280929190818152602001828054610a37906125fc565b8015610a825780601f10610a5957610100808354040283529160200191610a82565b820191905f5260205f20905b815481529060010190602001808311610a6557829003601f168201915b505050505090806002018054610a97906125fc565b80601f0160208091040260200160405190810160405280929190818152602001828054610ac3906125fc565b8015610b0e5780601f10610ae557610100808354040283529160200191610b0e565b820191905f5260205f20905b815481529060010190602001808311610af157829003601f168201915b505050505090806003015490806004015f9054906101000a900460ff16908060040160019054906101000a900460ff16908060050154908060060154905088565b6001602052805f5260405f205f91509050805f015f9054906101000a900473ffffffffffffffffffffffffffffffffffffffff1690806001018054610b93906125fc565b80601f0160208091040260200160405190810160405280929190818152602001828054610bbf906125fc565b8015610c0a5780601f10610be157610100808354040283529160200191610c0a565b820191905f5260205f20905b815481529060010190602001808311610bed57829003601f168201915b505050505090806002018054610c1f906125fc565b80601f0160208091040260200160405190810160405280929190818152602001828054610c4b906125fc565b8015610c965780601f10610c6d57610100808354040283529160200191610c96565b820191905f5260205f20905b815481529060010190602001808311610c7957829003601f168201915b505050505090806003015490806004015f9054906101000a900460ff16905085565b5f805f8373ffffffffffffffffffffffffffffffffffffffff1673ffffffffffffffffffffffffffffffffffffffff1681526020019081526020015f206003015490505f8111610d3d576040517f08c379a0000000000000000000000000000000000000000000000000000000008152600401610d3490612711565b60405180910390fd5b80471015610d80576040517f08c379a0000000000000000000000000000000000000000000000000000000008152600401610d7790612779565b60405180910390fd5b8173ffffffffffffffffffffffffffffffffffffffff166108fc8290811502906040515f60405180830381858888f19350505050158015610dc3573d5f803e3d5ffd5b505f805f8473ffffffffffffffffffffffffffffffffffffffff1673ffffffffffffffffffffffffffffffffffffffff1681526020019081526020015f20600301819055505050565b5f803373ffffffffffffffffffffffffffffffffffffffff1673ffffffffffffffffffffffffffffffffffffffff1681526020019081526020015f206004015f9054906101000a900460ff1615610e98576040517f08c379a0000000000000000000000000000000000000000000000000000000008152600401610e8f906127e1565b60405180910390fd5b6040518061010001604052808481526020018381526020018281526020015f81526020016001151581526020015f151581526020015f81526020015f8152505f803373ffffffffffffffffffffffffffffffffffffffff1673ffffffffffffffffffffffffffffffffffffffff1681526020019081526020015f205f820151815f019081610f26919061299c565b506020820151816001019081610f3c919061299c565b506040820151816002019081610f52919061299c565b50606082015181600301556080820151816004015f6101000a81548160ff02191690831515021790555060a08201518160040160016101000a81548160ff02191690831515021790555060c0820151816005015560e08201518160060155905050600233908060018154018082558091505060019003905f5260205f20015f9091909190916101000a81548173ffffffffffffffffffffffffffffffffffffffff021916908373ffffffffffffffffffffffffffffffffffffffff1602179055503373ffffffffffffffffffffffffffffffffffffffff167f9b956fafd6b420070aaa3307dcf792c7a34a3118d4271ee745e1472b281a2f1f846040516110599190612a6b565b60405180910390a2505050565b60028181548110611075575f80fd5b905f5260205f20015f915054906101000a900473ffffffffffffffffffffffffffffffffffffffff1681565b5f805f8373ffffffffffffffffffffffffffffffffffffffff1673ffffffffffffffffffffffffffffffffffffffff1681526020019081526020015f206004015f9054906101000a900460ff169050919050565b6040518060a001604052803373ffffffffffffffffffffffffffffffffffffffff1681526020018381526020018281526020015f81526020015f151581525060015f60035481526020019081526020015f205f820151815f015f6101000a81548173ffffffffffffffffffffffffffffffffffffffff021916908373ffffffffffffffffffffffffffffffffffffffff16021790555060208201518160010190816111a0919061299c565b5060408201518160020190816111b6919061299c565b50606082015181600301556080820151816004015f6101000a81548160ff0219169083151502179055509050503373ffffffffffffffffffffffffffffffffffffffff167fcd34c76a901e92ade48b3c78ff0ba1fc4ff6d848aba5b583b5630c0865bdfdd0838360405161122b929190612a8b565b60405180910390a260035f8154809291906112459061255b565b91905055505050565b60035481565b5f803373ffffffffffffffffffffffffffffffffffffffff1673ffffffffffffffffffffffffffffffffffffffff1681526020019081526020015f206004015f9054906101000a900460ff166112df576040517f08c379a00000000000000000000000000000000000000000000000000000000081526004016112d690612676565b60405180910390fd5b805f803373ffffffffffffffffffffffffffffffffffffffff1673ffffffffffffffffffffffffffffffffffffffff1681526020019081526020015f2060040160016101000a81548160ff0219169083151502179055503373ffffffffffffffffffffffffffffffffffffffff167f3672b36144f67c28908f397e752824646f236f69becca45f8a3e92dd85e3a21d8260405161137c9190612386565b60405180910390a250565b5f803373ffffffffffffffffffffffffffffffffffffffff1673ffffffffffffffffffffffffffffffffffffffff1681526020019081526020015f206004015f9054906101000a900460ff16611412576040517f08c379a000000000000000000000000000000000000000000000000000000000815260040161140990612676565b60405180910390fd5b60015f8281526020019081526020015f206004015f9054906101000a900460ff1615611473576040517f08c379a000000000000000000000000000000000000000000000000000000000815260040161146a90612b0a565b60405180910390fd5b6001805f8381526020019081526020015f206004015f6101000a81548160ff02191690831515021790555060015f803373ffffffffffffffffffffffffffffffffffffffff1673ffffffffffffffffffffffffffffffffffffffff1681526020019081526020015f2060040160016101000a81548160ff0219169083151502179055503373ffffffffffffffffffffffffffffffffffffffff167f3672b36144f67c28908f397e752824646f236f69becca45f8a3e92dd85e3a21d600160405161153d9190612386565b60405180910390a250565b5f803373ffffffffffffffffffffffffffffffffffffffff1673ffffffffffffffffffffffffffffffffffffffff1681526020019081526020015f206004015f9054906101000a900460ff166115d3576040517f08c379a00000000000000000000000000000000000000000000000000000000081526004016115ca90612676565b60405180910390fd5b5f803373ffffffffffffffffffffffffffffffffffffffff1673ffffffffffffffffffffffffffffffffffffffff1681526020019081526020015f2060040160019054906101000a900460ff1661165f576040517f08c379a000000000000000000000000000000000000000000000000000000000815260040161165690612b72565b60405180910390fd5b60015f8281526020019081526020015f206004015f9054906101000a900460ff16156116c0576040517f08c379a00000000000000000000000000000000000000000000000000000000081526004016116b790612b0a565b60405180910390fd5b5f805f3373ffffffffffffffffffffffffffffffffffffffff1673ffffffffffffffffffffffffffffffffffffffff1681526020019081526020015f2060040160016101000a81548160ff0219169083151502179055503373ffffffffffffffffffffffffffffffffffffffff167f3672b36144f67c28908f397e752824646f236f69becca45f8a3e92dd85e3a21d5f60405161175d9190612386565b60405180910390a250565b5f803373ffffffffffffffffffffffffffffffffffffffff1673ffffffffffffffffffffffffffffffffffffffff1681526020019081526020015f206004015f9054906101000a900460ff166117f3576040517f08c379a00000000000000000000000000000000000000000000000000000000081526004016117ea90612676565b60405180910390fd5b815f803373ffffffffffffffffffffffffffffffffffffffff1673ffffffffffffffffffffffffffffffffffffffff1681526020019081526020015f2060050181905550805f803373ffffffffffffffffffffffffffffffffffffffff1673ffffffffffffffffffffffffffffffffffffffff1681526020019081526020015f20600601819055505050565b6060805f805f808673ffffffffffffffffffffffffffffffffffffffff1673ffffffffffffffffffffffffffffffffffffffff1681526020019081526020015f20604051806101000160405290815f820180546118db906125fc565b80601f0160208091040260200160405190810160405280929190818152602001828054611907906125fc565b80156119525780601f1061192957610100808354040283529160200191611952565b820191905f5260205f20905b81548152906001019060200180831161193557829003601f168201915b5050505050815260200160018201805461196b906125fc565b80601f0160208091040260200160405190810160405280929190818152602001828054611997906125fc565b80156119e25780601f106119b9576101008083540402835291602001916119e2565b820191905f5260205f20905b8154815290600101906020018083116119c557829003601f168201915b505050505081526020016002820180546119fb906125fc565b80601f0160208091040260200160405190810160405280929190818152602001828054611a27906125fc565b8015611a725780601f10611a4957610100808354040283529160200191611a72565b820191905f5260205f20905b815481529060010190602001808311611a5557829003601f168201915b5050505050815260200160038201548152602001600482015f9054906101000a900460ff161515151581526020016004820160019054906101000a900460ff16151515158152602001600582015481526020016006820154815250509050805f015181602001518260600151935093509350509193909250565b6040518060a0016040528060608152602001606081526020016060815260200160608152602001606081525090565b5f81519050919050565b5f82825260208201905092915050565b5f819050602082019050919050565b5f819050919050565b611b5681611b44565b82525050565b5f611b678383611b4d565b60208301905092915050565b5f602082019050919050565b5f611b8982611b1b565b611b938185611b25565b9350611b9e83611b35565b805f5b83811015611bce578151611bb58882611b5c565b9750611bc083611b73565b925050600181019050611ba1565b5085935050505092915050565b5f81519050919050565b5f82825260208201905092915050565b5f819050602082019050919050565b5f73ffffffffffffffffffffffffffffffffffffffff82169050919050565b5f611c2d82611c04565b9050919050565b611c3d81611c23565b82525050565b5f611c4e8383611c34565b60208301905092915050565b5f602082019050919050565b5f611c7082611bdb565b611c7a8185611be5565b9350611c8583611bf5565b805f5b83811015611cb5578151611c9c8882611c43565b9750611ca783611c5a565b925050600181019050611c88565b5085935050505092915050565b5f81519050919050565b5f82825260208201905092915050565b5f819050602082019050919050565b5f81519050919050565b5f82825260208201905092915050565b5f5b83811015611d22578082015181840152602081019050611d07565b5f8484015250505050565b5f601f19601f8301169050919050565b5f611d4782611ceb565b611d518185611cf5565b9350611d61818560208601611d05565b611d6a81611d2d565b840191505092915050565b5f611d808383611d3d565b905092915050565b5f602082019050919050565b5f611d9e82611cc2565b611da88185611ccc565b935083602082028501611dba85611cdc565b805f5b85811015611df55784840389528151611dd68582611d75565b9450611de183611d88565b925060208a01995050600181019050611dbd565b50829750879550505050505092915050565b5f60a083015f8301518482035f860152611e218282611b7f565b91505060208301518482036020860152611e3b8282611c66565b91505060408301518482036040860152611e558282611d94565b91505060608301518482036060860152611e6f8282611d94565b91505060808301518482036080860152611e898282611b7f565b9150508091505092915050565b5f6020820190508181035f830152611eae8184611e07565b905092915050565b5f604051905090565b5f80fd5b5f80fd5b611ed081611c23565b8114611eda575f80fd5b50565b5f81359050611eeb81611ec7565b92915050565b611efa81611b44565b8114611f04575f80fd5b50565b5f81359050611f1581611ef1565b92915050565b5f8060408385031215611f3157611f30611ebf565b5b5f611f3e85828601611edd565b9250506020611f4f85828601611f07565b9150509250929050565b5f60208284031215611f6e57611f6d611ebf565b5b5f611f7b84828501611edd565b91505092915050565b5f82825260208201905092915050565b5f611f9e82611ceb565b611fa88185611f84565b9350611fb8818560208601611d05565b611fc181611d2d565b840191505092915050565b611fd581611b44565b82525050565b5f8115159050919050565b611fef81611fdb565b82525050565b5f819050919050565b61200781611ff5565b82525050565b5f610100820190508181035f830152612026818b611f94565b9050818103602083015261203a818a611f94565b9050818103604083015261204e8189611f94565b905061205d6060830188611fcc565b61206a6080830187611fe6565b61207760a0830186611fe6565b61208460c0830185611ffe565b61209160e0830184611ffe565b9998505050505050505050565b5f602082840312156120b3576120b2611ebf565b5b5f6120c084828501611f07565b91505092915050565b6120d281611c23565b82525050565b5f60a0820190506120eb5f8301886120c9565b81810360208301526120fd8187611f94565b905081810360408301526121118186611f94565b90506121206060830185611fcc565b61212d6080830184611fe6565b9695505050505050565b5f61214182611c04565b9050919050565b61215181612137565b811461215b575f80fd5b50565b5f8135905061216c81612148565b92915050565b5f6020828403121561218757612186611ebf565b5b5f6121948482850161215e565b91505092915050565b5f80fd5b5f80fd5b7f4e487b71000000000000000000000000000000000000000000000000000000005f52604160045260245ffd5b6121db82611d2d565b810181811067ffffffffffffffff821117156121fa576121f96121a5565b5b80604052505050565b5f61220c611eb6565b905061221882826121d2565b919050565b5f67ffffffffffffffff821115612237576122366121a5565b5b61224082611d2d565b9050602081019050919050565b828183375f83830152505050565b5f61226d6122688461221d565b612203565b905082815260208101848484011115612289576122886121a1565b5b61229484828561224d565b509392505050565b5f82601f8301126122b0576122af61219d565b5b81356122c084826020860161225b565b91505092915050565b5f805f606084860312156122e0576122df611ebf565b5b5f84013567ffffffffffffffff8111156122fd576122fc611ec3565b5b6123098682870161229c565b935050602084013567ffffffffffffffff81111561232a57612329611ec3565b5b6123368682870161229c565b925050604084013567ffffffffffffffff81111561235757612356611ec3565b5b6123638682870161229c565b9150509250925092565b5f6020820190506123805f8301846120c9565b92915050565b5f6020820190506123995f830184611fe6565b92915050565b5f80604083850312156123b5576123b4611ebf565b5b5f83013567ffffffffffffffff8111156123d2576123d1611ec3565b5b6123de8582860161229c565b925050602083013567ffffffffffffffff8111156123ff576123fe611ec3565b5b61240b8582860161229c565b9150509250929050565b5f6020820190506124285f830184611fcc565b92915050565b61243781611fdb565b8114612441575f80fd5b50565b5f813590506124528161242e565b92915050565b5f6020828403121561246d5761246c611ebf565b5b5f61247a84828501612444565b91505092915050565b61248c81611ff5565b8114612496575f80fd5b50565b5f813590506124a781612483565b92915050565b5f80604083850312156124c3576124c2611ebf565b5b5f6124d085828601612499565b92505060206124e185828601612499565b9150509250929050565b5f6060820190508181035f8301526125038186611f94565b905081810360208301526125178185611f94565b90506125266040830184611fcc565b949350505050565b7f4e487b71000000000000000000000000000000000000000000000000000000005f52601160045260245ffd5b5f61256582611b44565b91507fffffffffffffffffffffffffffffffffffffffffffffffffffffffffffffffff82036125975761259661252e565b5b600182019050919050565b7f4e487b71000000000000000000000000000000000000000000000000000000005f52603260045260245ffd5b7f4e487b71000000000000000000000000000000000000000000000000000000005f52602260045260245ffd5b5f600282049050600182168061261357607f821691505b602082108103612626576126256125cf565b5b50919050565b7f447269766572206e6f74207265676973746572656400000000000000000000005f82015250565b5f612660601583611f84565b915061266b8261262c565b602082019050919050565b5f6020820190508181035f83015261268d81612654565b9050919050565b5f61269e82611b44565b91506126a983611b44565b92508282019050808211156126c1576126c061252e565b5b92915050565b7f4e6f206561726e696e677320746f207472616e736665720000000000000000005f82015250565b5f6126fb601783611f84565b9150612706826126c7565b602082019050919050565b5f6020820190508181035f830152612728816126ef565b9050919050565b7f496e73756666696369656e7420636f6e74726163742062616c616e63650000005f82015250565b5f612763601d83611f84565b915061276e8261272f565b602082019050919050565b5f6020820190508181035f83015261279081612757565b9050919050565b7f44726976657220616c72656164792072656769737465726564000000000000005f82015250565b5f6127cb601983611f84565b91506127d682612797565b602082019050919050565b5f6020820190508181035f8301526127f8816127bf565b9050919050565b5f819050815f5260205f209050919050565b5f6020601f8301049050919050565b5f82821b905092915050565b5f6008830261285b7fffffffffffffffffffffffffffffffffffffffffffffffffffffffffffffffff82612820565b6128658683612820565b95508019841693508086168417925050509392505050565b5f819050919050565b5f6128a061289b61289684611b44565b61287d565b611b44565b9050919050565b5f819050919050565b6128b983612886565b6128cd6128c5826128a7565b84845461282c565b825550505050565b5f90565b6128e16128d5565b6128ec8184846128b0565b505050565b5b8181101561290f576129045f826128d9565b6001810190506128f2565b5050565b601f82111561295457612925816127ff565b61292e84612811565b8101602085101561293d578190505b61295161294985612811565b8301826128f1565b50505b505050565b5f82821c905092915050565b5f6129745f1984600802612959565b1980831691505092915050565b5f61298c8383612965565b9150826002028217905092915050565b6129a582611ceb565b67ffffffffffffffff8111156129be576129bd6121a5565b5b6129c882546125fc565b6129d3828285612913565b5f60209050601f831160018114612a04575f84156129f2578287015190505b6129fc8582612981565b865550612a63565b601f198416612a12866127ff565b5f5b82811015612a3957848901518255600182019150602085019450602081019050612a14565b86831015612a565784890151612a52601f891682612965565b8355505b6001600288020188555050505b505050505050565b5f6020820190508181035f830152612a838184611f94565b905092915050565b5f6040820190508181035f830152612aa38185611f94565b90508181036020830152612ab78184611f94565b90509392505050565b7f5269646520616c726561647920636f6d706c65746564000000000000000000005f82015250565b5f612af4601683611f84565b9150612aff82612ac0565b602082019050919050565b5f6020820190508181035f830152612b2181612ae8565b9050919050565b7f447269766572206e6f7420617661696c61626c650000000000000000000000005f82015250565b5f612b5c601483611f84565b9150612b6782612b28565b602082019050919050565b5f6020820190508181035f830152612b8981612b50565b905091905056fea264697066735822122018d6bd23052276e32aa332093d7111b7269633dca693b5fe877717643849abe364736f6c63430008150033",
  "immutableReferences": {},
  "source": "// SPDX-License-Identifier: MIT\r\npragma solidity ^0.8.0;\r\n\r\ncontract DriverManager {\r\n    \r\n    struct Driver {\r\n        string name;\r\n        string vehicleInfo;\r\n        string licenseNumber;\r\n        uint totalEarnings;\r\n        bool isRegistered;\r\n        bool isAvailable;\r\n        int256 latitude;\r\n        int256 longitude;\r\n    }\r\n\r\n    struct Ride {\r\n        address rider;\r\n        string pickupLocation;\r\n        string destination;\r\n        uint256 fare;\r\n        bool isCompleted;\r\n    }\r\n\r\n    struct ActiveRides {\r\n        uint256[] rideIds;\r\n        address[] riders;\r\n        string[] pickups;\r\n        string[] destinations;\r\n        uint256[] fares;\r\n    }\r\n\r\n    mapping(address => Driver) public drivers;\r\n    mapping(uint => Ride) public rides;\r\n    address[] public driverList;\r\n    uint public rideCounter;\r\n\r\n    event DriverRegistered(address indexed driverAddress, string name);\r\n    event DriverAvailabilityUpdated(address indexed driverAddress, bool isAvailable);\r\n    event RideRequested(address indexed rider, string pickup, string destination);\r\n    \r\n    // Register a new driver\r\n    function registerDriver(\r\n        string memory _name,\r\n        string memory _vehicleInfo,\r\n        string memory _licenseNumber\r\n    ) public {\r\n        require(!drivers[msg.sender].isRegistered, \"Driver already registered\");\r\n\r\n        // Create a new driver and store it\r\n        drivers[msg.sender] = Driver({\r\n            name: _name,\r\n            vehicleInfo: _vehicleInfo,\r\n            licenseNumber: _licenseNumber,\r\n            totalEarnings: 0,\r\n            isRegistered: true,\r\n            isAvailable: false,\r\n            latitude: 0,\r\n            longitude: 0\r\n        });\r\n\r\n        driverList.push(msg.sender);\r\n        emit DriverRegistered(msg.sender, _name);\r\n    }\r\n\r\n    // Check if driver is registered\r\n    function isDriverRegistered(address _driverAddress) public view returns (bool) {\r\n        return drivers[_driverAddress].isRegistered;\r\n    }\r\n\r\n    // Get driver details\r\n    function getDriverDetails(address _driverAddress) public view returns (\r\n        string memory name,\r\n        string memory vehicleInfo,\r\n        uint totalEarnings\r\n    ) {\r\n        Driver memory driver = drivers[_driverAddress];\r\n        return (\r\n            driver.name,\r\n            driver.vehicleInfo,\r\n            driver.totalEarnings\r\n        );\r\n    }\r\n\r\n    // Request ride\r\n    function requestRide(string memory pickup, string memory destination) public {\r\n        rides[rideCounter] = Ride({\r\n            rider: msg.sender,\r\n            pickupLocation: pickup,\r\n            destination: destination,\r\n            fare: 0, // You can set this based on your pricing logic\r\n            isCompleted: false\r\n        });\r\n\r\n        emit RideRequested(msg.sender, pickup, destination);\r\n        rideCounter++;\r\n    }\r\n\r\n    // Update driver availability\r\n    function setDriverAvailability(bool _isAvailable) public {\r\n        require(drivers[msg.sender].isRegistered, \"Driver not registered\");\r\n        drivers[msg.sender].isAvailable = _isAvailable;\r\n        emit DriverAvailabilityUpdated(msg.sender, _isAvailable);\r\n    }\r\n\r\n    // Add earnings to the driver\r\n    function addEarnings(address _driverAddress, uint _amount) public {\r\n        require(drivers[_driverAddress].isRegistered, \"Driver not registered\");\r\n        drivers[_driverAddress].totalEarnings += _amount;\r\n    }\r\n\r\n    // Transfer earnings to driver\r\n    function transferEarnings(address payable _driverAddress) public {\r\n        uint amount = drivers[_driverAddress].totalEarnings;\r\n        require(amount > 0, \"No earnings to transfer\");\r\n        require(address(this).balance >= amount, \"Insufficient contract balance\");\r\n\r\n        // Transfer the earnings to the driver\r\n        _driverAddress.transfer(amount);\r\n        drivers[_driverAddress].totalEarnings = 0;\r\n    }\r\n\r\n    // Receive ether for earnings (simple deposit function)\r\n    receive() external payable {\r\n        // Contract can receive ether (for example, earnings from riders)\r\n    }\r\n\r\n    // Accept a ride\r\n    function acceptRide(uint rideId) public {\r\n        require(drivers[msg.sender].isRegistered, \"Driver not registered\");\r\n        require(drivers[msg.sender].isAvailable, \"Driver not available\");\r\n        require(!rides[rideId].isCompleted, \"Ride already completed\");\r\n        \r\n        // Mark driver as unavailable while on ride\r\n        drivers[msg.sender].isAvailable = false;\r\n        emit DriverAvailabilityUpdated(msg.sender, false);\r\n    }\r\n\r\n    // Complete a ride\r\n    function completeRide(uint rideId) public {\r\n        require(drivers[msg.sender].isRegistered, \"Driver not registered\");\r\n        require(!rides[rideId].isCompleted, \"Ride already completed\");\r\n        \r\n        rides[rideId].isCompleted = true;\r\n        \r\n        // Make driver available again\r\n        drivers[msg.sender].isAvailable = true;\r\n        emit DriverAvailabilityUpdated(msg.sender, true);\r\n    }\r\n\r\n    // Get active ride requests\r\n    function getActiveRideRequests() public view returns (ActiveRides memory) {\r\n        uint activeCount = 0;\r\n        \r\n        // First count active rides\r\n        for(uint i = 0; i < rideCounter; i++) {\r\n            if(!rides[i].isCompleted) {\r\n                activeCount++;\r\n            }\r\n        }\r\n        \r\n        // Create arrays with the correct size\r\n        ActiveRides memory result;\r\n        result.rideIds = new uint256[](activeCount);\r\n        result.riders = new address[](activeCount);\r\n        result.pickups = new string[](activeCount);\r\n        result.destinations = new string[](activeCount);\r\n        result.fares = new uint256[](activeCount);\r\n        \r\n        // Fill arrays with active ride data\r\n        uint currentIndex = 0;\r\n        for(uint i = 0; i < rideCounter; i++) {\r\n            if(!rides[i].isCompleted) {\r\n                result.rideIds[currentIndex] = i;\r\n                result.riders[currentIndex] = rides[i].rider;\r\n                result.pickups[currentIndex] = rides[i].pickupLocation;\r\n                result.destinations[currentIndex] = rides[i].destination;\r\n                result.fares[currentIndex] = rides[i].fare;\r\n                currentIndex++;\r\n            }\r\n        }\r\n        \r\n        return result;\r\n    }\r\n\r\n    // Update driver location\r\n    function updateDriverLocation(int256 latitude, int256 longitude) public {\r\n        require(drivers[msg.sender].isRegistered, \"Driver not registered\");\r\n        drivers[msg.sender].latitude = latitude;\r\n        drivers[msg.sender].longitude = longitude;\r\n    }\r\n}",
  "sourcePath": "C:\\Users\\panch\\OneDrive\\Documents\\GitHub\\196-BlockChain\\contracts\\DriverManager.sol",
  "compiler": {
    "name": "solc",
    "version": "0.8.21+commit.d9974bed.Emscripten.clang"
  },
  "schemaVersion": "3.4.16",
  "updatedAt": "2025-04-26T03:25:40.247Z",
  "networkType": "ethereum",
  "devdoc": {
    "kind": "dev",
    "methods": {},
    "version": 1
  },
  "userdoc": {
    "kind": "user",
    "methods": {},
    "version": 1
  }
}