{
  "contractName": "RideSharingPlatform",
  "abi": [
    {
      "inputs": [],
      "stateMutability": "nonpayable",
      "type": "constructor"
    },
    {
      "anonymous": false,
      "inputs": [
        {
          "indexed": true,
          "internalType": "address",
          "name": "driverAddress",
          "type": "address"
        },
        {
          "indexed": false,
          "internalType": "bool",
          "name": "isAvailable",
          "type": "bool"
        }
      ],
      "name": "DriverAvailabilityUpdated",
      "type": "event"
    },
    {
      "anonymous": false,
      "inputs": [
        {
          "indexed": true,
          "internalType": "address",
          "name": "driverAddress",
          "type": "address"
        },
        {
          "indexed": false,
          "internalType": "string",
          "name": "name",
          "type": "string"
        }
      ],
      "name": "DriverRegistered",
      "type": "event"
    },
    {
      "anonymous": false,
      "inputs": [
        {
          "indexed": true,
          "internalType": "uint256",
          "name": "rideId",
          "type": "uint256"
        },
        {
          "indexed": true,
          "internalType": "address",
          "name": "driver",
          "type": "address"
        },
        {
          "indexed": false,
          "internalType": "uint256",
          "name": "amount",
          "type": "uint256"
        }
      ],
      "name": "PaymentProcessed",
      "type": "event"
    },
    {
      "anonymous": false,
      "inputs": [
        {
          "indexed": true,
          "internalType": "uint256",
          "name": "rideId",
          "type": "uint256"
        },
        {
          "indexed": true,
          "internalType": "address",
          "name": "driver",
          "type": "address"
        }
      ],
      "name": "RideAccepted",
      "type": "event"
    },
    {
      "anonymous": false,
      "inputs": [
        {
          "indexed": true,
          "internalType": "uint256",
          "name": "rideId",
          "type": "uint256"
        }
      ],
      "name": "RideCompleted",
      "type": "event"
    },
    {
      "anonymous": false,
      "inputs": [
        {
          "indexed": true,
          "internalType": "uint256",
          "name": "rideId",
          "type": "uint256"
        },
        {
          "indexed": true,
          "internalType": "address",
          "name": "driver",
          "type": "address"
        }
      ],
      "name": "RideDeclined",
      "type": "event"
    },
    {
      "anonymous": false,
      "inputs": [
        {
          "indexed": true,
          "internalType": "uint256",
          "name": "rideId",
          "type": "uint256"
        },
        {
          "indexed": true,
          "internalType": "address",
          "name": "rider",
          "type": "address"
        },
        {
          "indexed": false,
          "internalType": "string",
          "name": "origin",
          "type": "string"
        },
        {
          "indexed": false,
          "internalType": "string",
          "name": "destination",
          "type": "string"
        },
        {
          "indexed": false,
          "internalType": "uint256",
          "name": "fare",
          "type": "uint256"
        }
      ],
      "name": "RideRequested",
      "type": "event"
    },
    {
      "anonymous": false,
      "inputs": [
        {
          "indexed": true,
          "internalType": "uint256",
          "name": "rideId",
          "type": "uint256"
        }
      ],
      "name": "RideStarted",
      "type": "event"
    },
    {
      "inputs": [
        {
          "internalType": "uint256",
          "name": "",
          "type": "uint256"
        }
      ],
      "name": "driverList",
      "outputs": [
        {
          "internalType": "address",
          "name": "",
          "type": "address"
        }
      ],
      "stateMutability": "view",
      "type": "function",
      "constant": true
    },
    {
      "inputs": [
        {
          "internalType": "address",
          "name": "",
          "type": "address"
        },
        {
          "internalType": "uint256",
          "name": "",
          "type": "uint256"
        }
      ],
      "name": "driverRides",
      "outputs": [
        {
          "internalType": "uint256",
          "name": "",
          "type": "uint256"
        }
      ],
      "stateMutability": "view",
      "type": "function",
      "constant": true
    },
    {
      "inputs": [
        {
          "internalType": "address",
          "name": "",
          "type": "address"
        }
      ],
      "name": "drivers",
      "outputs": [
        {
          "internalType": "string",
          "name": "name",
          "type": "string"
        },
        {
          "internalType": "string",
          "name": "vehicleInfo",
          "type": "string"
        },
        {
          "internalType": "string",
          "name": "licenseNumber",
          "type": "string"
        },
        {
          "internalType": "uint256",
          "name": "totalEarnings",
          "type": "uint256"
        },
        {
          "internalType": "bool",
          "name": "isRegistered",
          "type": "bool"
        },
        {
          "internalType": "bool",
          "name": "isAvailable",
          "type": "bool"
        },
        {
          "internalType": "int256",
          "name": "latitude",
          "type": "int256"
        },
        {
          "internalType": "int256",
          "name": "longitude",
          "type": "int256"
        },
        {
          "internalType": "uint256",
          "name": "rating",
          "type": "uint256"
        },
        {
          "internalType": "uint256",
          "name": "rideCount",
          "type": "uint256"
        }
      ],
      "stateMutability": "view",
      "type": "function",
      "constant": true
    },
    {
      "inputs": [],
      "name": "platformFeePercent",
      "outputs": [
        {
          "internalType": "uint256",
          "name": "",
          "type": "uint256"
        }
      ],
      "stateMutability": "view",
      "type": "function",
      "constant": true
    },
    {
      "inputs": [],
      "name": "platformWallet",
      "outputs": [
        {
          "internalType": "address",
          "name": "",
          "type": "address"
        }
      ],
      "stateMutability": "view",
      "type": "function",
      "constant": true
    },
    {
      "inputs": [],
      "name": "rideCount",
      "outputs": [
        {
          "internalType": "uint256",
          "name": "",
          "type": "uint256"
        }
      ],
      "stateMutability": "view",
      "type": "function",
      "constant": true
    },
    {
      "inputs": [
        {
          "internalType": "address",
          "name": "",
          "type": "address"
        },
        {
          "internalType": "uint256",
          "name": "",
          "type": "uint256"
        }
      ],
      "name": "riderRides",
      "outputs": [
        {
          "internalType": "uint256",
          "name": "",
          "type": "uint256"
        }
      ],
      "stateMutability": "view",
      "type": "function",
      "constant": true
    },
    {
      "inputs": [
        {
          "internalType": "uint256",
          "name": "",
          "type": "uint256"
        }
      ],
      "name": "rides",
      "outputs": [
        {
          "internalType": "address",
          "name": "rider",
          "type": "address"
        },
        {
          "internalType": "address",
          "name": "driver",
          "type": "address"
        },
        {
          "internalType": "string",
          "name": "origin",
          "type": "string"
        },
        {
          "internalType": "string",
          "name": "destination",
          "type": "string"
        },
        {
          "internalType": "uint256",
          "name": "fare",
          "type": "uint256"
        },
        {
          "internalType": "enum RideSharingPlatform.RideStatus",
          "name": "status",
          "type": "uint8"
        },
        {
          "internalType": "uint256",
          "name": "timestamp",
          "type": "uint256"
        }
      ],
      "stateMutability": "view",
      "type": "function",
      "constant": true
    },
    {
      "stateMutability": "payable",
      "type": "receive",
      "payable": true
    },
    {
      "inputs": [
        {
          "internalType": "string",
          "name": "_name",
          "type": "string"
        },
        {
          "internalType": "string",
          "name": "_vehicleInfo",
          "type": "string"
        },
        {
          "internalType": "string",
          "name": "_licenseNumber",
          "type": "string"
        }
      ],
      "name": "registerDriver",
      "outputs": [],
      "stateMutability": "nonpayable",
      "type": "function"
    },
    {
      "inputs": [
        {
          "internalType": "address",
          "name": "_driverAddress",
          "type": "address"
        }
      ],
      "name": "isDriverRegistered",
      "outputs": [
        {
          "internalType": "bool",
          "name": "",
          "type": "bool"
        }
      ],
      "stateMutability": "view",
      "type": "function",
      "constant": true
    },
    {
      "inputs": [
        {
          "internalType": "address",
          "name": "_driverAddress",
          "type": "address"
        }
      ],
      "name": "getDriverDetails",
      "outputs": [
        {
          "internalType": "string",
          "name": "name",
          "type": "string"
        },
        {
          "internalType": "string",
          "name": "vehicleInfo",
          "type": "string"
        },
        {
          "internalType": "uint256",
          "name": "totalEarnings",
          "type": "uint256"
        }
      ],
      "stateMutability": "view",
      "type": "function",
      "constant": true
    },
    {
      "inputs": [
        {
          "internalType": "bool",
          "name": "_isAvailable",
          "type": "bool"
        }
      ],
      "name": "setDriverAvailability",
      "outputs": [],
      "stateMutability": "nonpayable",
      "type": "function"
    },
    {
      "inputs": [
        {
          "internalType": "int256",
          "name": "latitude",
          "type": "int256"
        },
        {
          "internalType": "int256",
          "name": "longitude",
          "type": "int256"
        }
      ],
      "name": "updateDriverLocation",
      "outputs": [],
      "stateMutability": "nonpayable",
      "type": "function"
    },
    {
      "inputs": [
        {
          "internalType": "string",
          "name": "origin",
          "type": "string"
        },
        {
          "internalType": "string",
          "name": "destination",
          "type": "string"
        },
        {
          "internalType": "uint256",
          "name": "fare",
          "type": "uint256"
        }
      ],
      "name": "requestRide",
      "outputs": [
        {
          "internalType": "uint256",
          "name": "",
          "type": "uint256"
        }
      ],
      "stateMutability": "nonpayable",
      "type": "function"
    },
    {
      "inputs": [
        {
          "internalType": "uint256",
          "name": "rideId",
          "type": "uint256"
        }
      ],
      "name": "acceptRide",
      "outputs": [],
      "stateMutability": "nonpayable",
      "type": "function"
    },
    {
      "inputs": [
        {
          "internalType": "uint256",
          "name": "rideId",
          "type": "uint256"
        }
      ],
      "name": "startRide",
      "outputs": [],
      "stateMutability": "nonpayable",
      "type": "function"
    },
    {
      "inputs": [
        {
          "internalType": "uint256",
          "name": "rideId",
          "type": "uint256"
        }
      ],
      "name": "completeRide",
      "outputs": [],
      "stateMutability": "nonpayable",
      "type": "function"
    },
    {
      "inputs": [
        {
          "internalType": "uint256",
          "name": "rideId",
          "type": "uint256"
        }
      ],
      "name": "declineRide",
      "outputs": [],
      "stateMutability": "nonpayable",
      "type": "function"
    },
    {
      "inputs": [
        {
          "internalType": "uint256",
          "name": "rideId",
          "type": "uint256"
        },
        {
          "internalType": "uint256",
          "name": "rating",
          "type": "uint256"
        }
      ],
      "name": "rateDriver",
      "outputs": [],
      "stateMutability": "nonpayable",
      "type": "function"
    },
    {
      "inputs": [
        {
          "internalType": "uint256",
          "name": "rideId",
          "type": "uint256"
        }
      ],
      "name": "getRideDetails",
      "outputs": [
        {
          "internalType": "address",
          "name": "rider",
          "type": "address"
        },
        {
          "internalType": "address",
          "name": "driver",
          "type": "address"
        },
        {
          "internalType": "string",
          "name": "origin",
          "type": "string"
        },
        {
          "internalType": "string",
          "name": "destination",
          "type": "string"
        },
        {
          "internalType": "uint256",
          "name": "fare",
          "type": "uint256"
        },
        {
          "internalType": "enum RideSharingPlatform.RideStatus",
          "name": "status",
          "type": "uint8"
        },
        {
          "internalType": "uint256",
          "name": "timestamp",
          "type": "uint256"
        }
      ],
      "stateMutability": "view",
      "type": "function",
      "constant": true
    },
    {
      "inputs": [],
      "name": "getActiveRideRequests",
      "outputs": [
        {
          "internalType": "uint256[]",
          "name": "rideIds",
          "type": "uint256[]"
        },
        {
          "internalType": "address[]",
          "name": "riders",
          "type": "address[]"
        },
        {
          "internalType": "string[]",
          "name": "pickups",
          "type": "string[]"
        },
        {
          "internalType": "string[]",
          "name": "destinations",
          "type": "string[]"
        },
        {
          "internalType": "uint256[]",
          "name": "fares",
          "type": "uint256[]"
        }
      ],
      "stateMutability": "view",
      "type": "function",
      "constant": true
    },
    {
      "inputs": [
        {
          "internalType": "address",
          "name": "user",
          "type": "address"
        }
      ],
      "name": "getUserRides",
      "outputs": [
        {
          "internalType": "uint256[]",
          "name": "",
          "type": "uint256[]"
        }
      ],
      "stateMutability": "view",
      "type": "function",
      "constant": true
    },
    {
      "inputs": [],
      "name": "getAvailableDrivers",
      "outputs": [
        {
          "internalType": "address[]",
          "name": "driverAddresses",
          "type": "address[]"
        },
        {
          "internalType": "string[]",
          "name": "names",
          "type": "string[]"
        },
        {
          "internalType": "string[]",
          "name": "vehicleInfos",
          "type": "string[]"
        },
        {
          "internalType": "uint256[]",
          "name": "ratings",
          "type": "uint256[]"
        }
      ],
      "stateMutability": "view",
      "type": "function",
      "constant": true
    },
    {
      "inputs": [
        {
          "internalType": "uint256",
          "name": "_feePercent",
          "type": "uint256"
        }
      ],
      "name": "setPlatformFee",
      "outputs": [],
      "stateMutability": "nonpayable",
      "type": "function"
    },
    {
      "inputs": [
        {
          "internalType": "address",
          "name": "_wallet",
          "type": "address"
        }
      ],
      "name": "setPlatformWallet",
      "outputs": [],
      "stateMutability": "nonpayable",
      "type": "function"
    }
  ],
  "bytecode": "0x60806040525f80556101f4600655348015610018575f80fd5b503360075f6101000a81548173ffffffffffffffffffffffffffffffffffffffff021916908373ffffffffffffffffffffffffffffffffffffffff16021790555061469f806100665f395ff3fe608060405260043610610169575f3560e01c806398a3f6c6116100d0578063c51562cb11610089578063ed3770cf11610063578063ed3770cf14610594578063f06bfc6e146105bc578063f769e2b5146105e4578063fa2af9da1461062257610170565b8063c51562cb1461051c578063d300103a14610544578063e9c14b1e1461056c57610170565b806398a3f6c6146103ee5780639bb577001461042a578063b079dae114610466578063b47c1883146104a2578063b98c0cc1146104cc578063c416dd0b146104f457610170565b80635a4d1b2e116101225780635a4d1b2e146102cf5780637c0351d11461030b57806383c81286146103475780638831e9cf146103745780638aefd2451461039c5780638c639a85146103c457610170565b80630493e5331461017457806312e8e2c3146101a25780631d6be93c146101ca578063358d588c1461020c5780634aa60186146102485780635205f1121461028d57610170565b3661017057005b5f80fd5b34801561017f575f80fd5b5061018861064c565b604051610199959493929190613333565b60405180910390f35b3480156101ad575f80fd5b506101c860048036038101906101c391906133e2565b610be4565b005b3480156101d5575f80fd5b506101f060048036038101906101eb91906133e2565b610cc2565b60405161020397969594939291906134e6565b60405180910390f35b348015610217575f80fd5b50610232600480360381019061022d919061358b565b610f3c565b60405161023f91906135c9565b60405180910390f35b348015610253575f80fd5b5061026e600480360381019061026991906135e2565b610f67565b6040516102849a9998979695949392919061363f565b60405180910390f35b348015610298575f80fd5b506102b360048036038101906102ae91906133e2565b611162565b6040516102c697969594939291906134e6565b60405180910390f35b3480156102da575f80fd5b506102f560048036038101906102f0919061381a565b6112f6565b60405161030291906135c9565b60405180910390f35b348015610316575f80fd5b50610331600480360381019061032c91906135e2565b611488565b60405161033e91906138a2565b60405180910390f35b348015610352575f80fd5b5061035b6115f5565b60405161036b94939291906138c2565b60405180910390f35b34801561037f575f80fd5b5061039a600480360381019061039591906135e2565b611c16565b005b3480156103a7575f80fd5b506103c260048036038101906103bd9190613921565b611d56565b005b3480156103cf575f80fd5b506103d8611fd4565b6040516103e591906135c9565b60405180910390f35b3480156103f9575f80fd5b50610414600480360381019061040f91906133e2565b611fda565b60405161042191906139c5565b60405180910390f35b348015610435575f80fd5b50610450600480360381019061044b91906135e2565b612015565b60405161045d91906139de565b60405180910390f35b348015610471575f80fd5b5061048c6004803603810190610487919061358b565b61206a565b60405161049991906135c9565b60405180910390f35b3480156104ad575f80fd5b506104b6612095565b6040516104c391906135c9565b60405180910390f35b3480156104d7575f80fd5b506104f260048036038101906104ed9190613a21565b61209a565b005b3480156104ff575f80fd5b5061051a600480360381019061051591906133e2565b6121cf565b005b348015610527575f80fd5b50610542600480360381019061053d91906133e2565b6124e2565b005b34801561054f575f80fd5b5061056a60048036038101906105659190613a4c565b61279c565b005b348015610577575f80fd5b50610592600480360381019061058d91906133e2565b6129cd565b005b34801561059f575f80fd5b506105ba60048036038101906105b59190613ab4565b612b46565b005b3480156105c7575f80fd5b506105e260048036038101906105dd91906133e2565b612c60565b005b3480156105ef575f80fd5b5061060a600480360381019061060591906135e2565b612da0565b60405161061993929190613af2565b60405180910390f35b34801561062d575f80fd5b50610636613022565b60405161064391906139c5565b60405180910390f35b60608060608060605f805b5f548110156106cd575f600481111561067357610672613473565b5b60015f8381526020019081526020015f206005015f9054906101000a900460ff1660048111156106a6576106a5613473565b5b036106ba5781806106b690613b62565b9250505b80806106c590613b62565b915050610657565b508067ffffffffffffffff8111156106e8576106e76136f6565b5b6040519080825280602002602001820160405280156107165781602001602082028036833780820191505090505b5095508067ffffffffffffffff811115610733576107326136f6565b5b6040519080825280602002602001820160405280156107615781602001602082028036833780820191505090505b5094508067ffffffffffffffff81111561077e5761077d6136f6565b5b6040519080825280602002602001820160405280156107b157816020015b606081526020019060019003908161079c5790505b5093508067ffffffffffffffff8111156107ce576107cd6136f6565b5b60405190808252806020026020018201604052801561080157816020015b60608152602001906001900390816107ec5790505b5092508067ffffffffffffffff81111561081e5761081d6136f6565b5b60405190808252806020026020018201604052801561084c5781602001602082028036833780820191505090505b5091505f805b5f54811015610bda575f600481111561086e5761086d613473565b5b60015f8381526020019081526020015f206005015f9054906101000a900460ff1660048111156108a1576108a0613473565b5b03610bc7575f60015f8381526020019081526020015f206040518060e00160405290815f82015f9054906101000a900473ffffffffffffffffffffffffffffffffffffffff1673ffffffffffffffffffffffffffffffffffffffff1673ffffffffffffffffffffffffffffffffffffffff168152602001600182015f9054906101000a900473ffffffffffffffffffffffffffffffffffffffff1673ffffffffffffffffffffffffffffffffffffffff1673ffffffffffffffffffffffffffffffffffffffff16815260200160028201805461097c90613bd6565b80601f01602080910402602001604051908101604052809291908181526020018280546109a890613bd6565b80156109f35780601f106109ca576101008083540402835291602001916109f3565b820191905f5260205f20905b8154815290600101906020018083116109d657829003601f168201915b50505050508152602001600382018054610a0c90613bd6565b80601f0160208091040260200160405190810160405280929190818152602001828054610a3890613bd6565b8015610a835780601f10610a5a57610100808354040283529160200191610a83565b820191905f5260205f20905b815481529060010190602001808311610a6657829003601f168201915b5050505050815260200160048201548152602001600582015f9054906101000a900460ff166004811115610aba57610ab9613473565b5b6004811115610acc57610acb613473565b5b8152602001600682015481525050905081898481518110610af057610aef613c06565b5b602002602001018181525050805f0151888481518110610b1357610b12613c06565b5b602002602001019073ffffffffffffffffffffffffffffffffffffffff16908173ffffffffffffffffffffffffffffffffffffffff16815250508060400151878481518110610b6557610b64613c06565b5b60200260200101819052508060600151868481518110610b8857610b87613c06565b5b60200260200101819052508060800151858481518110610bab57610baa613c06565b5b6020026020010181815250508280610bc290613b62565b935050505b8080610bd290613b62565b915050610852565b5050509091929394565b60075f9054906101000a900473ffffffffffffffffffffffffffffffffffffffff1673ffffffffffffffffffffffffffffffffffffffff163373ffffffffffffffffffffffffffffffffffffffff1614610c73576040517f08c379a0000000000000000000000000000000000000000000000000000000008152600401610c6a90613c7d565b60405180910390fd5b610bb8811115610cb8576040517f08c379a0000000000000000000000000000000000000000000000000000000008152600401610caf90613ce5565b60405180910390fd5b8060068190555050565b5f806060805f805f8060015f8a81526020019081526020015f206040518060e00160405290815f82015f9054906101000a900473ffffffffffffffffffffffffffffffffffffffff1673ffffffffffffffffffffffffffffffffffffffff1673ffffffffffffffffffffffffffffffffffffffff168152602001600182015f9054906101000a900473ffffffffffffffffffffffffffffffffffffffff1673ffffffffffffffffffffffffffffffffffffffff1673ffffffffffffffffffffffffffffffffffffffff168152602001600282018054610da090613bd6565b80601f0160208091040260200160405190810160405280929190818152602001828054610dcc90613bd6565b8015610e175780601f10610dee57610100808354040283529160200191610e17565b820191905f5260205f20905b815481529060010190602001808311610dfa57829003601f168201915b50505050508152602001600382018054610e3090613bd6565b80601f0160208091040260200160405190810160405280929190818152602001828054610e5c90613bd6565b8015610ea75780601f10610e7e57610100808354040283529160200191610ea7565b820191905f5260205f20905b815481529060010190602001808311610e8a57829003601f168201915b5050505050815260200160048201548152602001600582015f9054906101000a900460ff166004811115610ede57610edd613473565b5b6004811115610ef057610eef613473565b5b81526020016006820154815250509050805f015181602001518260400151836060015184608001518560a001518660c00151975097509750975097509750975050919395979092949650565b6003602052815f5260405f208181548110610f55575f80fd5b905f5260205f20015f91509150505481565b6002602052805f5260405f205f91509050805f018054610f8690613bd6565b80601f0160208091040260200160405190810160405280929190818152602001828054610fb290613bd6565b8015610ffd5780601f10610fd457610100808354040283529160200191610ffd565b820191905f5260205f20905b815481529060010190602001808311610fe057829003601f168201915b50505050509080600101805461101290613bd6565b80601f016020809104026020016040519081016040528092919081815260200182805461103e90613bd6565b80156110895780601f1061106057610100808354040283529160200191611089565b820191905f5260205f20905b81548152906001019060200180831161106c57829003601f168201915b50505050509080600201805461109e90613bd6565b80601f01602080910402602001604051908101604052809291908181526020018280546110ca90613bd6565b80156111155780601f106110ec57610100808354040283529160200191611115565b820191905f5260205f20905b8154815290600101906020018083116110f857829003601f168201915b505050505090806003015490806004015f9054906101000a900460ff16908060040160019054906101000a900460ff1690806005015490806006015490806007015490806008015490508a565b6001602052805f5260405f205f91509050805f015f9054906101000a900473ffffffffffffffffffffffffffffffffffffffff1690806001015f9054906101000a900473ffffffffffffffffffffffffffffffffffffffff16908060020180546111cb90613bd6565b80601f01602080910402602001604051908101604052809291908181526020018280546111f790613bd6565b80156112425780601f1061121957610100808354040283529160200191611242565b820191905f5260205f20905b81548152906001019060200180831161122557829003601f168201915b50505050509080600301805461125790613bd6565b80601f016020809104026020016040519081016040528092919081815260200182805461128390613bd6565b80156112ce5780601f106112a5576101008083540402835291602001916112ce565b820191905f5260205f20905b8154815290600101906020018083116112b157829003601f168201915b505050505090806004015490806005015f9054906101000a900460ff16908060060154905087565b5f805f5490505f60015f8381526020019081526020015f20905033815f015f6101000a81548173ffffffffffffffffffffffffffffffffffffffff021916908373ffffffffffffffffffffffffffffffffffffffff160217905550858160020190816113629190613ea0565b50848160030190816113749190613ea0565b508381600401819055505f816005015f6101000a81548160ff021916908360048111156113a4576113a3613473565b5b021790555042816006018190555060035f3373ffffffffffffffffffffffffffffffffffffffff1673ffffffffffffffffffffffffffffffffffffffff1681526020019081526020015f2082908060018154018082558091505060019003905f5260205f20015f90919091909150553373ffffffffffffffffffffffffffffffffffffffff16827f6df8a9fd56bc145c1b2254aea11dc4363ff4440765898a9bfeabe8b5d2fbce1188888860405161145e93929190613af2565b60405180910390a35f8081548092919061147790613b62565b919050555081925050509392505050565b60605f60035f8473ffffffffffffffffffffffffffffffffffffffff1673ffffffffffffffffffffffffffffffffffffffff1681526020019081526020015f208054905011156115635760035f8373ffffffffffffffffffffffffffffffffffffffff1673ffffffffffffffffffffffffffffffffffffffff1681526020019081526020015f2080548060200260200160405190810160405280929190818152602001828054801561155757602002820191905f5260205f20905b815481526020019060010190808311611543575b505050505090506115f0565b60045f8373ffffffffffffffffffffffffffffffffffffffff1673ffffffffffffffffffffffffffffffffffffffff1681526020019081526020015f208054806020026020016040519081016040528092919081815260200182805480156115e857602002820191905f5260205f20905b8154815260200190600101908083116115d4575b505050505090505b919050565b6060806060805f805b6005805490508110156116bb5760025f6005838154811061162257611621613c06565b5b905f5260205f20015f9054906101000a900473ffffffffffffffffffffffffffffffffffffffff1673ffffffffffffffffffffffffffffffffffffffff1673ffffffffffffffffffffffffffffffffffffffff1681526020019081526020015f2060040160019054906101000a900460ff16156116a85781806116a490613b62565b9250505b80806116b390613b62565b9150506115fe565b508067ffffffffffffffff8111156116d6576116d56136f6565b5b6040519080825280602002602001820160405280156117045781602001602082028036833780820191505090505b5094508067ffffffffffffffff811115611721576117206136f6565b5b60405190808252806020026020018201604052801561175457816020015b606081526020019060019003908161173f5790505b5093508067ffffffffffffffff811115611771576117706136f6565b5b6040519080825280602002602001820160405280156117a457816020015b606081526020019060019003908161178f5790505b5092508067ffffffffffffffff8111156117c1576117c06136f6565b5b6040519080825280602002602001820160405280156117ef5781602001602082028036833780820191505090505b5091505f805b600580549050811015611c0d5760025f6005838154811061181957611818613c06565b5b905f5260205f20015f9054906101000a900473ffffffffffffffffffffffffffffffffffffffff1673ffffffffffffffffffffffffffffffffffffffff1673ffffffffffffffffffffffffffffffffffffffff1681526020019081526020015f2060040160019054906101000a900460ff1615611bfa575f600582815481106118a5576118a4613c06565b5b905f5260205f20015f9054906101000a900473ffffffffffffffffffffffffffffffffffffffff1690505f60025f8373ffffffffffffffffffffffffffffffffffffffff1673ffffffffffffffffffffffffffffffffffffffff1681526020019081526020015f20604051806101400160405290815f8201805461192890613bd6565b80601f016020809104026020016040519081016040528092919081815260200182805461195490613bd6565b801561199f5780601f106119765761010080835404028352916020019161199f565b820191905f5260205f20905b81548152906001019060200180831161198257829003601f168201915b505050505081526020016001820180546119b890613bd6565b80601f01602080910402602001604051908101604052809291908181526020018280546119e490613bd6565b8015611a2f5780601f10611a0657610100808354040283529160200191611a2f565b820191905f5260205f20905b815481529060010190602001808311611a1257829003601f168201915b50505050508152602001600282018054611a4890613bd6565b80601f0160208091040260200160405190810160405280929190818152602001828054611a7490613bd6565b8015611abf5780601f10611a9657610100808354040283529160200191611abf565b820191905f5260205f20905b815481529060010190602001808311611aa257829003601f168201915b5050505050815260200160038201548152602001600482015f9054906101000a900460ff161515151581526020016004820160019054906101000a900460ff16151515158152602001600582015481526020016006820154815260200160078201548152602001600882015481525050905081898581518110611b4557611b44613c06565b5b602002602001019073ffffffffffffffffffffffffffffffffffffffff16908173ffffffffffffffffffffffffffffffffffffffff1681525050805f0151888581518110611b9657611b95613c06565b5b60200260200101819052508060200151878581518110611bb957611bb8613c06565b5b6020026020010181905250806101000151868581518110611bdd57611bdc613c06565b5b6020026020010181815250508380611bf490613b62565b94505050505b8080611c0590613b62565b9150506117f5565b50505090919293565b60075f9054906101000a900473ffffffffffffffffffffffffffffffffffffffff1673ffffffffffffffffffffffffffffffffffffffff163373ffffffffffffffffffffffffffffffffffffffff1614611ca5576040517f08c379a0000000000000000000000000000000000000000000000000000000008152600401611c9c90613fdf565b60405180910390fd5b5f73ffffffffffffffffffffffffffffffffffffffff168173ffffffffffffffffffffffffffffffffffffffff1603611d13576040517f08c379a0000000000000000000000000000000000000000000000000000000008152600401611d0a90614047565b60405180910390fd5b8060075f6101000a81548173ffffffffffffffffffffffffffffffffffffffff021916908373ffffffffffffffffffffffffffffffffffffffff16021790555050565b60025f3373ffffffffffffffffffffffffffffffffffffffff1673ffffffffffffffffffffffffffffffffffffffff1681526020019081526020015f206004015f9054906101000a900460ff1615611de3576040517f08c379a0000000000000000000000000000000000000000000000000000000008152600401611dda906140af565b60405180910390fd5b6040518061014001604052808481526020018381526020018281526020015f81526020016001151581526020015f151581526020015f81526020015f81526020015f81526020015f81525060025f3373ffffffffffffffffffffffffffffffffffffffff1673ffffffffffffffffffffffffffffffffffffffff1681526020019081526020015f205f820151815f019081611e7e9190613ea0565b506020820151816001019081611e949190613ea0565b506040820151816002019081611eaa9190613ea0565b50606082015181600301556080820151816004015f6101000a81548160ff02191690831515021790555060a08201518160040160016101000a81548160ff02191690831515021790555060c0820151816005015560e0820151816006015561010082015181600701556101208201518160080155905050600533908060018154018082558091505060019003905f5260205f20015f9091909190916101000a81548173ffffffffffffffffffffffffffffffffffffffff021916908373ffffffffffffffffffffffffffffffffffffffff1602179055503373ffffffffffffffffffffffffffffffffffffffff167f9b956fafd6b420070aaa3307dcf792c7a34a3118d4271ee745e1472b281a2f1f84604051611fc791906140cd565b60405180910390a2505050565b60065481565b60058181548110611fe9575f80fd5b905f5260205f20015f915054906101000a900473ffffffffffffffffffffffffffffffffffffffff1681565b5f60025f8373ffffffffffffffffffffffffffffffffffffffff1673ffffffffffffffffffffffffffffffffffffffff1681526020019081526020015f206004015f9054906101000a900460ff169050919050565b6004602052815f5260405f208181548110612083575f80fd5b905f5260205f20015f91509150505481565b5f5481565b60025f3373ffffffffffffffffffffffffffffffffffffffff1673ffffffffffffffffffffffffffffffffffffffff1681526020019081526020015f206004015f9054906101000a900460ff16612126576040517f08c379a000000000000000000000000000000000000000000000000000000000815260040161211d90614137565b60405180910390fd5b8060025f3373ffffffffffffffffffffffffffffffffffffffff1673ffffffffffffffffffffffffffffffffffffffff1681526020019081526020015f2060040160016101000a81548160ff0219169083151502179055503373ffffffffffffffffffffffffffffffffffffffff167f3672b36144f67c28908f397e752824646f236f69becca45f8a3e92dd85e3a21d826040516121c491906139de565b60405180910390a250565b5f60015f8381526020019081526020015f209050806001015f9054906101000a900473ffffffffffffffffffffffffffffffffffffffff1673ffffffffffffffffffffffffffffffffffffffff163373ffffffffffffffffffffffffffffffffffffffff1614612274576040517f08c379a000000000000000000000000000000000000000000000000000000000815260040161226b9061419f565b60405180910390fd5b6002600481111561228857612287613473565b5b816005015f9054906101000a900460ff1660048111156122ab576122aa613473565b5b146122eb576040517f08c379a00000000000000000000000000000000000000000000000000000000081526004016122e290614207565b60405180910390fd5b6003816005015f6101000a81548160ff0219169083600481111561231257612311613473565b5b02179055505f612710600654836004015461232d9190614225565b6123379190614293565b90505f81836004015461234a91906142c3565b90508060025f856001015f9054906101000a900473ffffffffffffffffffffffffffffffffffffffff1673ffffffffffffffffffffffffffffffffffffffff1673ffffffffffffffffffffffffffffffffffffffff1681526020019081526020015f206003015f8282546123be91906142f6565b9250508190555060025f846001015f9054906101000a900473ffffffffffffffffffffffffffffffffffffffff1673ffffffffffffffffffffffffffffffffffffffff1673ffffffffffffffffffffffffffffffffffffffff1681526020019081526020015f206008015f81548092919061243890613b62565b9190505550837f63e5b4bf8bc6c9cf867e6cc4d53f654c1f0365d975100e04129de6383f8c4b2360405160405180910390a2826001015f9054906101000a900473ffffffffffffffffffffffffffffffffffffffff1673ffffffffffffffffffffffffffffffffffffffff16847f354a7e09d58acfc69c01f51ad9c6b43c46501b660e7790d744ee8421936e3d3b836040516124d491906135c9565b60405180910390a350505050565b60025f3373ffffffffffffffffffffffffffffffffffffffff1673ffffffffffffffffffffffffffffffffffffffff1681526020019081526020015f206004015f9054906101000a900460ff1661256e576040517f08c379a000000000000000000000000000000000000000000000000000000000815260040161256590614137565b60405180910390fd5b60025f3373ffffffffffffffffffffffffffffffffffffffff1673ffffffffffffffffffffffffffffffffffffffff1681526020019081526020015f2060040160019054906101000a900460ff166125fb576040517f08c379a00000000000000000000000000000000000000000000000000000000081526004016125f290614373565b60405180910390fd5b5f60015f8381526020019081526020015f2090505f600481111561262257612621613473565b5b816005015f9054906101000a900460ff16600481111561264557612644613473565b5b14612685576040517f08c379a000000000000000000000000000000000000000000000000000000000815260040161267c906143db565b60405180910390fd5b33816001015f6101000a81548173ffffffffffffffffffffffffffffffffffffffff021916908373ffffffffffffffffffffffffffffffffffffffff1602179055506001816005015f6101000a81548160ff021916908360048111156126ee576126ed613473565b5b021790555060045f3373ffffffffffffffffffffffffffffffffffffffff1673ffffffffffffffffffffffffffffffffffffffff1681526020019081526020015f2082908060018154018082558091505060019003905f5260205f20015f90919091909150553373ffffffffffffffffffffffffffffffffffffffff16827fcb890c33fd108e736800f548e422bb587b58384dea0bbc2849e4b904ce455bbc60405160405180910390a35050565b5f60015f8481526020019081526020015f209050805f015f9054906101000a900473ffffffffffffffffffffffffffffffffffffffff1673ffffffffffffffffffffffffffffffffffffffff163373ffffffffffffffffffffffffffffffffffffffff1614612840576040517f08c379a000000000000000000000000000000000000000000000000000000000815260040161283790614443565b60405180910390fd5b6003600481111561285457612853613473565b5b816005015f9054906101000a900460ff16600481111561287757612876613473565b5b146128b7576040517f08c379a00000000000000000000000000000000000000000000000000000000081526004016128ae906144ab565b60405180910390fd5b600182101580156128c9575060058211155b612908576040517f08c379a00000000000000000000000000000000000000000000000000000000081526004016128ff90614513565b60405180910390fd5b5f60025f836001015f9054906101000a900473ffffffffffffffffffffffffffffffffffffffff1673ffffffffffffffffffffffffffffffffffffffff1673ffffffffffffffffffffffffffffffffffffffff1681526020019081526020015f2090505f816008015403612984578281600701819055506129c7565b6001816008015461299591906142f6565b83826008015483600701546129aa9190614225565b6129b491906142f6565b6129be9190614293565b81600701819055505b50505050565b5f60015f8381526020019081526020015f209050806001015f9054906101000a900473ffffffffffffffffffffffffffffffffffffffff1673ffffffffffffffffffffffffffffffffffffffff163373ffffffffffffffffffffffffffffffffffffffff1614612a72576040517f08c379a0000000000000000000000000000000000000000000000000000000008152600401612a699061457b565b60405180910390fd5b60016004811115612a8657612a85613473565b5b816005015f9054906101000a900460ff166004811115612aa957612aa8613473565b5b14612ae9576040517f08c379a0000000000000000000000000000000000000000000000000000000008152600401612ae0906145e3565b60405180910390fd5b6002816005015f6101000a81548160ff02191690836004811115612b1057612b0f613473565b5b0217905550817f1caef5aba80487f3eb64526a934f8250dd2591d249cd4f14756041c0ff93607d60405160405180910390a25050565b60025f3373ffffffffffffffffffffffffffffffffffffffff1673ffffffffffffffffffffffffffffffffffffffff1681526020019081526020015f206004015f9054906101000a900460ff16612bd2576040517f08c379a0000000000000000000000000000000000000000000000000000000008152600401612bc990614137565b60405180910390fd5b8160025f3373ffffffffffffffffffffffffffffffffffffffff1673ffffffffffffffffffffffffffffffffffffffff1681526020019081526020015f20600501819055508060025f3373ffffffffffffffffffffffffffffffffffffffff1673ffffffffffffffffffffffffffffffffffffffff1681526020019081526020015f20600601819055505050565b5f60015f8381526020019081526020015f2090505f6004811115612c8757612c86613473565b5b816005015f9054906101000a900460ff166004811115612caa57612ca9613473565b5b14612cea576040517f08c379a0000000000000000000000000000000000000000000000000000000008152600401612ce19061464b565b60405180910390fd5b6004816005015f6101000a81548160ff02191690836004811115612d1157612d10613473565b5b021790555033816001015f6101000a81548173ffffffffffffffffffffffffffffffffffffffff021916908373ffffffffffffffffffffffffffffffffffffffff1602179055503373ffffffffffffffffffffffffffffffffffffffff16827f1ad43faea15d69bd2aef718e55e6a441b54199e561b3ef908bcada47f8542ed360405160405180910390a35050565b6060805f8060025f8673ffffffffffffffffffffffffffffffffffffffff1673ffffffffffffffffffffffffffffffffffffffff1681526020019081526020015f20604051806101400160405290815f82018054612dfd90613bd6565b80601f0160208091040260200160405190810160405280929190818152602001828054612e2990613bd6565b8015612e745780601f10612e4b57610100808354040283529160200191612e74565b820191905f5260205f20905b815481529060010190602001808311612e5757829003601f168201915b50505050508152602001600182018054612e8d90613bd6565b80601f0160208091040260200160405190810160405280929190818152602001828054612eb990613bd6565b8015612f045780601f10612edb57610100808354040283529160200191612f04565b820191905f5260205f20905b815481529060010190602001808311612ee757829003601f168201915b50505050508152602001600282018054612f1d90613bd6565b80601f0160208091040260200160405190810160405280929190818152602001828054612f4990613bd6565b8015612f945780601f10612f6b57610100808354040283529160200191612f94565b820191905f5260205f20905b815481529060010190602001808311612f7757829003601f168201915b5050505050815260200160038201548152602001600482015f9054906101000a900460ff161515151581526020016004820160019054906101000a900460ff161515151581526020016005820154815260200160068201548152602001600782015481526020016008820154815250509050805f015181602001518260600151935093509350509193909250565b60075f9054906101000a900473ffffffffffffffffffffffffffffffffffffffff1681565b5f81519050919050565b5f82825260208201905092915050565b5f819050602082019050919050565b5f819050919050565b61308281613070565b82525050565b5f6130938383613079565b60208301905092915050565b5f602082019050919050565b5f6130b582613047565b6130bf8185613051565b93506130ca83613061565b805f5b838110156130fa5781516130e18882613088565b97506130ec8361309f565b9250506001810190506130cd565b5085935050505092915050565b5f81519050919050565b5f82825260208201905092915050565b5f819050602082019050919050565b5f73ffffffffffffffffffffffffffffffffffffffff82169050919050565b5f61315982613130565b9050919050565b6131698161314f565b82525050565b5f61317a8383613160565b60208301905092915050565b5f602082019050919050565b5f61319c82613107565b6131a68185613111565b93506131b183613121565b805f5b838110156131e15781516131c8888261316f565b97506131d383613186565b9250506001810190506131b4565b5085935050505092915050565b5f81519050919050565b5f82825260208201905092915050565b5f819050602082019050919050565b5f81519050919050565b5f82825260208201905092915050565b5f5b8381101561324e578082015181840152602081019050613233565b5f8484015250505050565b5f601f19601f8301169050919050565b5f61327382613217565b61327d8185613221565b935061328d818560208601613231565b61329681613259565b840191505092915050565b5f6132ac8383613269565b905092915050565b5f602082019050919050565b5f6132ca826131ee565b6132d481856131f8565b9350836020820285016132e685613208565b805f5b85811015613321578484038952815161330285826132a1565b945061330d836132b4565b925060208a019950506001810190506132e9565b50829750879550505050505092915050565b5f60a0820190508181035f83015261334b81886130ab565b9050818103602083015261335f8187613192565b9050818103604083015261337381866132c0565b9050818103606083015261338781856132c0565b9050818103608083015261339b81846130ab565b90509695505050505050565b5f604051905090565b5f80fd5b5f80fd5b6133c181613070565b81146133cb575f80fd5b50565b5f813590506133dc816133b8565b92915050565b5f602082840312156133f7576133f66133b0565b5b5f613404848285016133ce565b91505092915050565b6134168161314f565b82525050565b5f82825260208201905092915050565b5f61343682613217565b613440818561341c565b9350613450818560208601613231565b61345981613259565b840191505092915050565b61346d81613070565b82525050565b7f4e487b71000000000000000000000000000000000000000000000000000000005f52602160045260245ffd5b600581106134b1576134b0613473565b5b50565b5f8190506134c1826134a0565b919050565b5f6134d0826134b4565b9050919050565b6134e0816134c6565b82525050565b5f60e0820190506134f95f83018a61340d565b613506602083018961340d565b8181036040830152613518818861342c565b9050818103606083015261352c818761342c565b905061353b6080830186613464565b61354860a08301856134d7565b61355560c0830184613464565b98975050505050505050565b61356a8161314f565b8114613574575f80fd5b50565b5f8135905061358581613561565b92915050565b5f80604083850312156135a1576135a06133b0565b5b5f6135ae85828601613577565b92505060206135bf858286016133ce565b9150509250929050565b5f6020820190506135dc5f830184613464565b92915050565b5f602082840312156135f7576135f66133b0565b5b5f61360484828501613577565b91505092915050565b5f8115159050919050565b6136218161360d565b82525050565b5f819050919050565b61363981613627565b82525050565b5f610140820190508181035f830152613658818d61342c565b9050818103602083015261366c818c61342c565b90508181036040830152613680818b61342c565b905061368f606083018a613464565b61369c6080830189613618565b6136a960a0830188613618565b6136b660c0830187613630565b6136c360e0830186613630565b6136d1610100830185613464565b6136df610120830184613464565b9b9a5050505050505050505050565b5f80fd5b5f80fd5b7f4e487b71000000000000000000000000000000000000000000000000000000005f52604160045260245ffd5b61372c82613259565b810181811067ffffffffffffffff8211171561374b5761374a6136f6565b5b80604052505050565b5f61375d6133a7565b90506137698282613723565b919050565b5f67ffffffffffffffff821115613788576137876136f6565b5b61379182613259565b9050602081019050919050565b828183375f83830152505050565b5f6137be6137b98461376e565b613754565b9050828152602081018484840111156137da576137d96136f2565b5b6137e584828561379e565b509392505050565b5f82601f830112613801576138006136ee565b5b81356138118482602086016137ac565b91505092915050565b5f805f60608486031215613831576138306133b0565b5b5f84013567ffffffffffffffff81111561384e5761384d6133b4565b5b61385a868287016137ed565b935050602084013567ffffffffffffffff81111561387b5761387a6133b4565b5b613887868287016137ed565b9250506040613898868287016133ce565b9150509250925092565b5f6020820190508181035f8301526138ba81846130ab565b905092915050565b5f6080820190508181035f8301526138da8187613192565b905081810360208301526138ee81866132c0565b9050818103604083015261390281856132c0565b9050818103606083015261391681846130ab565b905095945050505050565b5f805f60608486031215613938576139376133b0565b5b5f84013567ffffffffffffffff811115613955576139546133b4565b5b613961868287016137ed565b935050602084013567ffffffffffffffff811115613982576139816133b4565b5b61398e868287016137ed565b925050604084013567ffffffffffffffff8111156139af576139ae6133b4565b5b6139bb868287016137ed565b9150509250925092565b5f6020820190506139d85f83018461340d565b92915050565b5f6020820190506139f15f830184613618565b92915050565b613a008161360d565b8114613a0a575f80fd5b50565b5f81359050613a1b816139f7565b92915050565b5f60208284031215613a3657613a356133b0565b5b5f613a4384828501613a0d565b91505092915050565b5f8060408385031215613a6257613a616133b0565b5b5f613a6f858286016133ce565b9250506020613a80858286016133ce565b9150509250929050565b613a9381613627565b8114613a9d575f80fd5b50565b5f81359050613aae81613a8a565b92915050565b5f8060408385031215613aca57613ac96133b0565b5b5f613ad785828601613aa0565b9250506020613ae885828601613aa0565b9150509250929050565b5f6060820190508181035f830152613b0a818661342c565b90508181036020830152613b1e818561342c565b9050613b2d6040830184613464565b949350505050565b7f4e487b71000000000000000000000000000000000000000000000000000000005f52601160045260245ffd5b5f613b6c82613070565b91507fffffffffffffffffffffffffffffffffffffffffffffffffffffffffffffffff8203613b9e57613b9d613b35565b5b600182019050919050565b7f4e487b71000000000000000000000000000000000000000000000000000000005f52602260045260245ffd5b5f6002820490506001821680613bed57607f821691505b602082108103613c0057613bff613ba9565b5b50919050565b7f4e487b71000000000000000000000000000000000000000000000000000000005f52603260045260245ffd5b7f4f6e6c7920706c6174666f726d206f776e65722063616e2073657420666565005f82015250565b5f613c67601f8361341c565b9150613c7282613c33565b602082019050919050565b5f6020820190508181035f830152613c9481613c5b565b9050919050565b7f4665652063616e6e6f74206578636565642033302500000000000000000000005f82015250565b5f613ccf60158361341c565b9150613cda82613c9b565b602082019050919050565b5f6020820190508181035f830152613cfc81613cc3565b9050919050565b5f819050815f5260205f209050919050565b5f6020601f8301049050919050565b5f82821b905092915050565b5f60088302613d5f7fffffffffffffffffffffffffffffffffffffffffffffffffffffffffffffffff82613d24565b613d698683613d24565b95508019841693508086168417925050509392505050565b5f819050919050565b5f613da4613d9f613d9a84613070565b613d81565b613070565b9050919050565b5f819050919050565b613dbd83613d8a565b613dd1613dc982613dab565b848454613d30565b825550505050565b5f90565b613de5613dd9565b613df0818484613db4565b505050565b5b81811015613e1357613e085f82613ddd565b600181019050613df6565b5050565b601f821115613e5857613e2981613d03565b613e3284613d15565b81016020851015613e41578190505b613e55613e4d85613d15565b830182613df5565b50505b505050565b5f82821c905092915050565b5f613e785f1984600802613e5d565b1980831691505092915050565b5f613e908383613e69565b9150826002028217905092915050565b613ea982613217565b67ffffffffffffffff811115613ec257613ec16136f6565b5b613ecc8254613bd6565b613ed7828285613e17565b5f60209050601f831160018114613f08575f8415613ef6578287015190505b613f008582613e85565b865550613f67565b601f198416613f1686613d03565b5f5b82811015613f3d57848901518255600182019150602085019450602081019050613f18565b86831015613f5a5784890151613f56601f891682613e69565b8355505b6001600288020188555050505b505050505050565b7f4f6e6c7920706c6174666f726d206f776e65722063616e206368616e676520775f8201527f616c6c6574000000000000000000000000000000000000000000000000000000602082015250565b5f613fc960258361341c565b9150613fd482613f6f565b604082019050919050565b5f6020820190508181035f830152613ff681613fbd565b9050919050565b7f496e76616c6964206164647265737300000000000000000000000000000000005f82015250565b5f614031600f8361341c565b915061403c82613ffd565b602082019050919050565b5f6020820190508181035f83015261405e81614025565b9050919050565b7f44726976657220616c72656164792072656769737465726564000000000000005f82015250565b5f61409960198361341c565b91506140a482614065565b602082019050919050565b5f6020820190508181035f8301526140c68161408d565b9050919050565b5f6020820190508181035f8301526140e5818461342c565b905092915050565b7f447269766572206e6f74207265676973746572656400000000000000000000005f82015250565b5f61412160158361341c565b915061412c826140ed565b602082019050919050565b5f6020820190508181035f83015261414e81614115565b9050919050565b7f4f6e6c79206472697665722063616e20636f6d706c65746500000000000000005f82015250565b5f61418960188361341c565b915061419482614155565b602082019050919050565b5f6020820190508181035f8301526141b68161417d565b9050919050565b7f52696465206e6f742073746172746564000000000000000000000000000000005f82015250565b5f6141f160108361341c565b91506141fc826141bd565b602082019050919050565b5f6020820190508181035f83015261421e816141e5565b9050919050565b5f61422f82613070565b915061423a83613070565b925082820261424881613070565b9150828204841483151761425f5761425e613b35565b5b5092915050565b7f4e487b71000000000000000000000000000000000000000000000000000000005f52601260045260245ffd5b5f61429d82613070565b91506142a883613070565b9250826142b8576142b7614266565b5b828204905092915050565b5f6142cd82613070565b91506142d883613070565b92508282039050818111156142f0576142ef613b35565b5b92915050565b5f61430082613070565b915061430b83613070565b925082820190508082111561432357614322613b35565b5b92915050565b7f447269766572206e6f7420617661696c61626c650000000000000000000000005f82015250565b5f61435d60148361341c565b915061436882614329565b602082019050919050565b5f6020820190508181035f83015261438a81614351565b9050919050565b7f52696465206e6f7420617661696c61626c6500000000000000000000000000005f82015250565b5f6143c560128361341c565b91506143d082614391565b602082019050919050565b5f6020820190508181035f8301526143f2816143b9565b9050919050565b7f4f6e6c792072696465722063616e2072617465000000000000000000000000005f82015250565b5f61442d60138361341c565b9150614438826143f9565b602082019050919050565b5f6020820190508181035f83015261445a81614421565b9050919050565b7f52696465206e6f7420636f6d706c6574656400000000000000000000000000005f82015250565b5f61449560128361341c565b91506144a082614461565b602082019050919050565b5f6020820190508181035f8301526144c281614489565b9050919050565b7f526174696e67206d757374206265206265747765656e20312d350000000000005f82015250565b5f6144fd601a8361341c565b9150614508826144c9565b602082019050919050565b5f6020820190508181035f83015261452a816144f1565b9050919050565b7f4f6e6c79206472697665722063616e20737461727400000000000000000000005f82015250565b5f61456560158361341c565b915061457082614531565b602082019050919050565b5f6020820190508181035f83015261459281614559565b9050919050565b7f52696465206e6f742061636365707465640000000000000000000000000000005f82015250565b5f6145cd60118361341c565b91506145d882614599565b602082019050919050565b5f6020820190508181035f8301526145fa816145c1565b9050919050565b7f52696465206e6f7420617661696c61626c6520666f72206465636c696e696e675f82015250565b5f61463560208361341c565b915061464082614601565b602082019050919050565b5f6020820190508181035f83015261466281614629565b905091905056fea26469706673582212209e18c929c676a140130b4d09f5c2510716f0e3f5ab864185dd1a08116acc674764736f6c63430008150033",
  "immutableReferences": {},
  "source": "// SPDX-License-Identifier: MIT\r\npragma solidity ^0.8.0;\r\n\r\ncontract RideSharingPlatform {\r\n    // ========== Data Structures ==========\r\n    enum RideStatus { Requested, Accepted, Started, Completed, Declined }\r\n    \r\n    struct Driver {\r\n        string name;\r\n        string vehicleInfo;\r\n        string licenseNumber;\r\n        uint256 totalEarnings;\r\n        bool isRegistered;\r\n        bool isAvailable;\r\n        int256 latitude;\r\n        int256 longitude;\r\n        uint256 rating;\r\n        uint256 rideCount;\r\n    }\r\n    \r\n    struct Ride {\r\n        address rider;\r\n        address driver;\r\n        string origin;\r\n        string destination;\r\n        uint256 fare;\r\n        RideStatus status;\r\n        uint256 timestamp;\r\n    }\r\n    \r\n    // ========== State Variables ==========\r\n    uint256 public rideCount = 0;\r\n    mapping(uint256 => Ride) public rides;\r\n    mapping(address => Driver) public drivers;\r\n    mapping(address => uint256[]) public riderRides;\r\n    mapping(address => uint256[]) public driverRides;\r\n    address[] public driverList;\r\n    \r\n    // Platform fee percentage (in basis points, 100 = 1%)\r\n    uint256 public platformFeePercent = 500; // 5%\r\n    address public platformWallet;\r\n    \r\n    // ========== Events ==========\r\n    event DriverRegistered(address indexed driverAddress, string name);\r\n    event DriverAvailabilityUpdated(address indexed driverAddress, bool isAvailable);\r\n    event RideRequested(uint256 indexed rideId, address indexed rider, string origin, string destination, uint256 fare);\r\n    event RideAccepted(uint256 indexed rideId, address indexed driver);\r\n    event RideStarted(uint256 indexed rideId);\r\n    event RideCompleted(uint256 indexed rideId);\r\n    event RideDeclined(uint256 indexed rideId, address indexed driver);\r\n    event PaymentProcessed(uint256 indexed rideId, address indexed driver, uint256 amount);\r\n    \r\n    // ========== Constructor ==========\r\n    constructor() {\r\n        platformWallet = msg.sender;\r\n    }\r\n    \r\n    // ========== Driver Functions ==========\r\n    function registerDriver(string memory _name, string memory _vehicleInfo, string memory _licenseNumber) public {\r\n        require(!drivers[msg.sender].isRegistered, \"Driver already registered\");\r\n        \r\n        drivers[msg.sender] = Driver({\r\n            name: _name,\r\n            vehicleInfo: _vehicleInfo,\r\n            licenseNumber: _licenseNumber,\r\n            totalEarnings: 0,\r\n            isRegistered: true,\r\n            isAvailable: false,\r\n            latitude: 0,\r\n            longitude: 0,\r\n            rating: 0,\r\n            rideCount: 0\r\n        });\r\n        \r\n        driverList.push(msg.sender);\r\n        emit DriverRegistered(msg.sender, _name);\r\n    }\r\n    \r\n    function isDriverRegistered(address _driverAddress) public view returns (bool) {\r\n        return drivers[_driverAddress].isRegistered;\r\n    }\r\n    \r\n    function getDriverDetails(address _driverAddress) public view returns (\r\n        string memory name,\r\n        string memory vehicleInfo,\r\n        uint256 totalEarnings\r\n    ) {\r\n        Driver memory driver = drivers[_driverAddress];\r\n        return (driver.name, driver.vehicleInfo, driver.totalEarnings);\r\n    }\r\n    \r\n    function setDriverAvailability(bool _isAvailable) public {\r\n        require(drivers[msg.sender].isRegistered, \"Driver not registered\");\r\n        drivers[msg.sender].isAvailable = _isAvailable;\r\n        emit DriverAvailabilityUpdated(msg.sender, _isAvailable);\r\n    }\r\n    \r\n    function updateDriverLocation(int256 latitude, int256 longitude) public {\r\n        require(drivers[msg.sender].isRegistered, \"Driver not registered\");\r\n        drivers[msg.sender].latitude = latitude;\r\n        drivers[msg.sender].longitude = longitude;\r\n    }\r\n    \r\n    // ========== Rider Functions ==========\r\n    function requestRide(string memory origin, string memory destination, uint256 fare) public returns (uint256) {\r\n        uint256 currentRideId = rideCount;\r\n        \r\n        Ride storage ride = rides[currentRideId];\r\n        ride.rider = msg.sender;\r\n        ride.origin = origin;\r\n        ride.destination = destination;\r\n        ride.fare = fare;\r\n        ride.status = RideStatus.Requested;\r\n        ride.timestamp = block.timestamp;\r\n        \r\n        riderRides[msg.sender].push(currentRideId);\r\n        \r\n        emit RideRequested(currentRideId, msg.sender, origin, destination, fare);\r\n        \r\n        rideCount++;\r\n        return currentRideId;\r\n    }\r\n    \r\n    // ========== Shared Functions ==========\r\n    function acceptRide(uint256 rideId) public {\r\n        require(drivers[msg.sender].isRegistered, \"Driver not registered\");\r\n        require(drivers[msg.sender].isAvailable, \"Driver not available\");\r\n        \r\n        Ride storage ride = rides[rideId];\r\n        require(ride.status == RideStatus.Requested, \"Ride not available\");\r\n        \r\n        ride.driver = msg.sender;\r\n        ride.status = RideStatus.Accepted;\r\n        \r\n        driverRides[msg.sender].push(rideId);\r\n        \r\n        emit RideAccepted(rideId, msg.sender);\r\n    }\r\n    \r\n    function startRide(uint256 rideId) public {\r\n        Ride storage ride = rides[rideId];\r\n        require(msg.sender == ride.driver, \"Only driver can start\");\r\n        require(ride.status == RideStatus.Accepted, \"Ride not accepted\");\r\n        \r\n        ride.status = RideStatus.Started;\r\n        \r\n        emit RideStarted(rideId);\r\n    }\r\n    \r\n    function completeRide(uint256 rideId) public {\r\n        Ride storage ride = rides[rideId];\r\n        require(msg.sender == ride.driver, \"Only driver can complete\");\r\n        require(ride.status == RideStatus.Started, \"Ride not started\");\r\n        \r\n        ride.status = RideStatus.Completed;\r\n        \r\n        // Calculate platform fee\r\n        uint256 platformFee = (ride.fare * platformFeePercent) / 10000;\r\n        uint256 driverPayment = ride.fare - platformFee;\r\n        \r\n        // Update driver earnings\r\n        drivers[ride.driver].totalEarnings += driverPayment;\r\n        drivers[ride.driver].rideCount++;\r\n        \r\n        emit RideCompleted(rideId);\r\n        emit PaymentProcessed(rideId, ride.driver, driverPayment);\r\n    }\r\n    \r\n    function declineRide(uint256 rideId) public {\r\n        Ride storage ride = rides[rideId];\r\n        require(ride.status == RideStatus.Requested, \"Ride not available for declining\");\r\n        \r\n        ride.status = RideStatus.Declined;\r\n        ride.driver = msg.sender; // Record who declined it\r\n        \r\n        emit RideDeclined(rideId, msg.sender);\r\n    }\r\n    \r\n    function rateDriver(uint256 rideId, uint256 rating) public {\r\n        Ride storage ride = rides[rideId];\r\n        require(msg.sender == ride.rider, \"Only rider can rate\");\r\n        require(ride.status == RideStatus.Completed, \"Ride not completed\");\r\n        require(rating >= 1 && rating <= 5, \"Rating must be between 1-5\");\r\n        \r\n        // Simple average rating calculation\r\n        Driver storage driver = drivers[ride.driver];\r\n        \r\n        if (driver.rideCount == 0) {\r\n            driver.rating = rating;\r\n        } else {\r\n            // Calculate new average rating\r\n            driver.rating = ((driver.rating * driver.rideCount) + rating) / (driver.rideCount + 1);\r\n        }\r\n    }\r\n    \r\n    // ========== View Functions ==========\r\n    function getRideDetails(uint256 rideId) public view returns (\r\n        address rider,\r\n        address driver,\r\n        string memory origin,\r\n        string memory destination,\r\n        uint256 fare,\r\n        RideStatus status,\r\n        uint256 timestamp\r\n    ) {\r\n        Ride memory ride = rides[rideId];\r\n        return (\r\n            ride.rider,\r\n            ride.driver,\r\n            ride.origin,\r\n            ride.destination,\r\n            ride.fare,\r\n            ride.status,\r\n            ride.timestamp\r\n        );\r\n    }\r\n    \r\n    function getActiveRideRequests() public view returns (\r\n        uint256[] memory rideIds,\r\n        address[] memory riders,\r\n        string[] memory pickups,\r\n        string[] memory destinations,\r\n        uint256[] memory fares\r\n    ) {\r\n        // Count pending rides first\r\n        uint256 pendingCount = 0;\r\n        for (uint256 i = 0; i < rideCount; i++) {\r\n            if (rides[i].status == RideStatus.Requested) {\r\n                pendingCount++;\r\n            }\r\n        }\r\n        \r\n        // Initialize arrays\r\n        rideIds = new uint256[](pendingCount);\r\n        riders = new address[](pendingCount);\r\n        pickups = new string[](pendingCount);\r\n        destinations = new string[](pendingCount);\r\n        fares = new uint256[](pendingCount);\r\n        \r\n        // Fill arrays with pending ride data\r\n        uint256 index = 0;\r\n        for (uint256 i = 0; i < rideCount; i++) {\r\n            if (rides[i].status == RideStatus.Requested) {\r\n                Ride memory ride = rides[i];\r\n                rideIds[index] = i;\r\n                riders[index] = ride.rider;\r\n                pickups[index] = ride.origin;\r\n                destinations[index] = ride.destination;\r\n                fares[index] = ride.fare;\r\n                index++;\r\n            }\r\n        }\r\n    }\r\n    \r\n    function getUserRides(address user) public view returns (uint256[] memory) {\r\n        if (riderRides[user].length > 0) {\r\n            return riderRides[user];\r\n        } else {\r\n            return driverRides[user];\r\n        }\r\n    }\r\n    \r\n    function getAvailableDrivers() public view returns (\r\n        address[] memory driverAddresses,\r\n        string[] memory names,\r\n        string[] memory vehicleInfos,\r\n        uint256[] memory ratings\r\n    ) {\r\n        // Count available drivers\r\n        uint256 availableCount = 0;\r\n        for (uint256 i = 0; i < driverList.length; i++) {\r\n            if (drivers[driverList[i]].isAvailable) {\r\n                availableCount++;\r\n            }\r\n        }\r\n        \r\n        // Initialize arrays\r\n        driverAddresses = new address[](availableCount);\r\n        names = new string[](availableCount);\r\n        vehicleInfos = new string[](availableCount);\r\n        ratings = new uint256[](availableCount);\r\n        \r\n        // Fill arrays with available driver data\r\n        uint256 index = 0;\r\n        for (uint256 i = 0; i < driverList.length; i++) {\r\n            if (drivers[driverList[i]].isAvailable) {\r\n                address driverAddr = driverList[i];\r\n                Driver memory driver = drivers[driverAddr];\r\n                \r\n                driverAddresses[index] = driverAddr;\r\n                names[index] = driver.name;\r\n                vehicleInfos[index] = driver.vehicleInfo;\r\n                ratings[index] = driver.rating;\r\n                index++;\r\n            }\r\n        }\r\n    }\r\n    \r\n    // ========== Admin Functions ==========\r\n    function setPlatformFee(uint256 _feePercent) public {\r\n        require(msg.sender == platformWallet, \"Only platform owner can set fee\");\r\n        require(_feePercent <= 3000, \"Fee cannot exceed 30%\");\r\n        platformFeePercent = _feePercent;\r\n    }\r\n    \r\n    function setPlatformWallet(address _wallet) public {\r\n        require(msg.sender == platformWallet, \"Only platform owner can change wallet\");\r\n        require(_wallet != address(0), \"Invalid address\");\r\n        platformWallet = _wallet;\r\n    }\r\n    \r\n    // Allow the platform to receive ETH payments\r\n    receive() external payable {}\r\n} ",
  "sourcePath": "C:\\Users\\panch\\OneDrive\\Documents\\GitHub\\196-BlockChain\\contracts\\RideSharingPlatform.sol",
  "compiler": {
    "name": "solc",
    "version": "0.8.21+commit.d9974bed.Emscripten.clang"
  },
  "schemaVersion": "3.4.16",
  "updatedAt": "2025-04-26T03:25:40.263Z",
  "networkType": "ethereum",
  "devdoc": {
    "kind": "dev",
    "methods": {},
    "version": 1
  },
  "userdoc": {
    "kind": "user",
    "methods": {},
    "version": 1
  }
}