{
  "contractName": "RideManager",
  "abi": [
    {
      "anonymous": false,
      "inputs": [
        {
          "indexed": false,
          "internalType": "uint256",
          "name": "rideId",
          "type": "uint256"
        },
        {
          "indexed": false,
          "internalType": "address",
          "name": "driver",
          "type": "address"
        }
      ],
      "name": "RideAccepted",
      "type": "event"
    },
    {
      "anonymous": false,
      "inputs": [
        {
          "indexed": false,
          "internalType": "uint256",
          "name": "rideId",
          "type": "uint256"
        }
      ],
      "name": "RideCompleted",
      "type": "event"
    },
    {
      "anonymous": false,
      "inputs": [
        {
          "indexed": false,
          "internalType": "uint256",
          "name": "rideId",
          "type": "uint256"
        },
        {
          "indexed": false,
          "internalType": "address",
          "name": "driver",
          "type": "address"
        }
      ],
      "name": "RideDeclined",
      "type": "event"
    },
    {
      "anonymous": false,
      "inputs": [
        {
          "indexed": false,
          "internalType": "uint256",
          "name": "rideId",
          "type": "uint256"
        },
        {
          "indexed": false,
          "internalType": "address",
          "name": "rider",
          "type": "address"
        },
        {
          "indexed": false,
          "internalType": "string",
          "name": "origin",
          "type": "string"
        },
        {
          "indexed": false,
          "internalType": "string",
          "name": "destination",
          "type": "string"
        },
        {
          "indexed": false,
          "internalType": "uint256",
          "name": "cost",
          "type": "uint256"
        }
      ],
      "name": "RideRequested",
      "type": "event"
    },
    {
      "anonymous": false,
      "inputs": [
        {
          "indexed": false,
          "internalType": "uint256",
          "name": "rideId",
          "type": "uint256"
        }
      ],
      "name": "RideStarted",
      "type": "event"
    },
    {
      "inputs": [
        {
          "internalType": "address",
          "name": "",
          "type": "address"
        },
        {
          "internalType": "uint256",
          "name": "",
          "type": "uint256"
        }
      ],
      "name": "driverRides",
      "outputs": [
        {
          "internalType": "uint256",
          "name": "",
          "type": "uint256"
        }
      ],
      "stateMutability": "view",
      "type": "function",
      "constant": true
    },
    {
      "inputs": [],
      "name": "rideCount",
      "outputs": [
        {
          "internalType": "uint256",
          "name": "",
          "type": "uint256"
        }
      ],
      "stateMutability": "view",
      "type": "function",
      "constant": true
    },
    {
      "inputs": [
        {
          "internalType": "address",
          "name": "",
          "type": "address"
        },
        {
          "internalType": "uint256",
          "name": "",
          "type": "uint256"
        }
      ],
      "name": "riderRides",
      "outputs": [
        {
          "internalType": "uint256",
          "name": "",
          "type": "uint256"
        }
      ],
      "stateMutability": "view",
      "type": "function",
      "constant": true
    },
    {
      "inputs": [
        {
          "internalType": "uint256",
          "name": "",
          "type": "uint256"
        }
      ],
      "name": "rides",
      "outputs": [
        {
          "internalType": "address",
          "name": "rider",
          "type": "address"
        },
        {
          "internalType": "address",
          "name": "driver",
          "type": "address"
        },
        {
          "internalType": "string",
          "name": "origin",
          "type": "string"
        },
        {
          "internalType": "string",
          "name": "destination",
          "type": "string"
        },
        {
          "internalType": "uint256",
          "name": "cost",
          "type": "uint256"
        },
        {
          "internalType": "enum RideManager.RideStatus",
          "name": "status",
          "type": "uint8"
        }
      ],
      "stateMutability": "view",
      "type": "function",
      "constant": true
    },
    {
      "inputs": [
        {
          "internalType": "string",
          "name": "origin",
          "type": "string"
        },
        {
          "internalType": "string",
          "name": "destination",
          "type": "string"
        },
        {
          "internalType": "uint256",
          "name": "cost",
          "type": "uint256"
        }
      ],
      "name": "requestRide",
      "outputs": [
        {
          "internalType": "uint256",
          "name": "",
          "type": "uint256"
        }
      ],
      "stateMutability": "nonpayable",
      "type": "function"
    },
    {
      "inputs": [
        {
          "internalType": "uint256",
          "name": "rideId",
          "type": "uint256"
        }
      ],
      "name": "acceptRide",
      "outputs": [],
      "stateMutability": "nonpayable",
      "type": "function"
    },
    {
      "inputs": [
        {
          "internalType": "uint256",
          "name": "rideId",
          "type": "uint256"
        }
      ],
      "name": "startRide",
      "outputs": [],
      "stateMutability": "nonpayable",
      "type": "function"
    },
    {
      "inputs": [
        {
          "internalType": "uint256",
          "name": "rideId",
          "type": "uint256"
        }
      ],
      "name": "endRide",
      "outputs": [],
      "stateMutability": "nonpayable",
      "type": "function"
    },
    {
      "inputs": [
        {
          "internalType": "uint256",
          "name": "rideId",
          "type": "uint256"
        }
      ],
      "name": "declineRide",
      "outputs": [],
      "stateMutability": "nonpayable",
      "type": "function"
    },
    {
      "inputs": [
        {
          "internalType": "uint256",
          "name": "rideId",
          "type": "uint256"
        }
      ],
      "name": "getRideDetails",
      "outputs": [
        {
          "internalType": "address",
          "name": "",
          "type": "address"
        },
        {
          "internalType": "address",
          "name": "",
          "type": "address"
        },
        {
          "internalType": "string",
          "name": "",
          "type": "string"
        },
        {
          "internalType": "string",
          "name": "",
          "type": "string"
        },
        {
          "internalType": "uint256",
          "name": "",
          "type": "uint256"
        },
        {
          "internalType": "enum RideManager.RideStatus",
          "name": "",
          "type": "uint8"
        }
      ],
      "stateMutability": "view",
      "type": "function",
      "constant": true
    },
    {
      "inputs": [
        {
          "internalType": "address",
          "name": "user",
          "type": "address"
        }
      ],
      "name": "getActiveRides",
      "outputs": [
        {
          "internalType": "uint256[]",
          "name": "",
          "type": "uint256[]"
        }
      ],
      "stateMutability": "view",
      "type": "function",
      "constant": true
    },
    {
      "inputs": [],
      "name": "getActiveRideRequests",
      "outputs": [
        {
          "internalType": "uint256[]",
          "name": "rideIds",
          "type": "uint256[]"
        },
        {
          "internalType": "address[]",
          "name": "riders",
          "type": "address[]"
        },
        {
          "internalType": "string[]",
          "name": "pickups",
          "type": "string[]"
        },
        {
          "internalType": "string[]",
          "name": "destinations",
          "type": "string[]"
        },
        {
          "internalType": "uint256[]",
          "name": "fares",
          "type": "uint256[]"
        },
        {
          "internalType": "int256[]",
          "name": "pickupLats",
          "type": "int256[]"
        },
        {
          "internalType": "int256[]",
          "name": "pickupLngs",
          "type": "int256[]"
        }
      ],
      "stateMutability": "view",
      "type": "function",
      "constant": true
    }
  ],
  "bytecode": "0x60806040525f8055348015610012575f80fd5b50612546806100205f395ff3fe608060405234801561000f575f80fd5b50600436106100b2575f3560e01c806365a250061161006f57806365a25006146101c0578063b079dae1146101f0578063b47c188314610220578063c51562cb1461023e578063e9c14b1e1461025a578063f06bfc6e14610276576100b2565b80630493e533146100b65780631d6be93c146100da578063358d588c1461010f57806350a548fc1461013f5780635205f1121461015b5780635a4d1b2e14610190575b5f80fd5b6100be610292565b6040516100d197969594939291906119b3565b60405180910390f35b6100f460048036038101906100ef9190611a8c565b6108fb565b60405161010696959493929190611b90565b60405180910390f35b61012960048036038101906101249190611c27565b610b61565b6040516101369190611c65565b60405180910390f35b61015960048036038101906101549190611a8c565b610b8c565b005b61017560048036038101906101709190611a8c565b610d0f565b60405161018796959493929190611b90565b60405180910390f35b6101aa60048036038101906101a59190611daa565b610e9d565b6040516101b79190611c65565b60405180910390f35b6101da60048036038101906101d59190611e32565b61101c565b6040516101e79190611e5d565b60405180910390f35b61020a60048036038101906102059190611c27565b611189565b6040516102179190611c65565b60405180910390f35b6102286111b4565b6040516102359190611c65565b60405180910390f35b61025860048036038101906102539190611a8c565b6111b9565b005b610274600480360381019061026f9190611a8c565b61134f565b005b610290600480360381019061028b9190611a8c565b6114d2565b005b60608060608060608060605f805b5f54811015610316575f60048111156102bc576102bb611b1d565b5b60015f8381526020019081526020015f206005015f9054906101000a900460ff1660048111156102ef576102ee611b1d565b5b036103035781806102ff90611eaa565b9250505b808061030e90611eaa565b9150506102a0565b508067ffffffffffffffff81111561033157610330611c86565b5b60405190808252806020026020018201604052801561035f5781602001602082028036833780820191505090505b5097508067ffffffffffffffff81111561037c5761037b611c86565b5b6040519080825280602002602001820160405280156103aa5781602001602082028036833780820191505090505b5096508067ffffffffffffffff8111156103c7576103c6611c86565b5b6040519080825280602002602001820160405280156103fa57816020015b60608152602001906001900390816103e55790505b5095508067ffffffffffffffff81111561041757610416611c86565b5b60405190808252806020026020018201604052801561044a57816020015b60608152602001906001900390816104355790505b5094508067ffffffffffffffff81111561046757610466611c86565b5b6040519080825280602002602001820160405280156104955781602001602082028036833780820191505090505b5093508067ffffffffffffffff8111156104b2576104b1611c86565b5b6040519080825280602002602001820160405280156104e05781602001602082028036833780820191505090505b5092508067ffffffffffffffff8111156104fd576104fc611c86565b5b60405190808252806020026020018201604052801561052b5781602001602082028036833780820191505090505b5091505f805b5f548110156108ef575f600481111561054d5761054c611b1d565b5b60015f8381526020019081526020015f206005015f9054906101000a900460ff1660048111156105805761057f611b1d565b5b036108dc575f60015f8381526020019081526020015f206040518060c00160405290815f82015f9054906101000a900473ffffffffffffffffffffffffffffffffffffffff1673ffffffffffffffffffffffffffffffffffffffff1673ffffffffffffffffffffffffffffffffffffffff168152602001600182015f9054906101000a900473ffffffffffffffffffffffffffffffffffffffff1673ffffffffffffffffffffffffffffffffffffffff1673ffffffffffffffffffffffffffffffffffffffff16815260200160028201805461065b90611f1e565b80601f016020809104026020016040519081016040528092919081815260200182805461068790611f1e565b80156106d25780601f106106a9576101008083540402835291602001916106d2565b820191905f5260205f20905b8154815290600101906020018083116106b557829003601f168201915b505050505081526020016003820180546106eb90611f1e565b80601f016020809104026020016040519081016040528092919081815260200182805461071790611f1e565b80156107625780601f1061073957610100808354040283529160200191610762565b820191905f5260205f20905b81548152906001019060200180831161074557829003601f168201915b5050505050815260200160048201548152602001600582015f9054906101000a900460ff16600481111561079957610798611b1d565b5b60048111156107ab576107aa611b1d565b5b815250509050818b84815181106107c5576107c4611f4e565b5b602002602001018181525050805f01518a84815181106107e8576107e7611f4e565b5b602002602001019073ffffffffffffffffffffffffffffffffffffffff16908173ffffffffffffffffffffffffffffffffffffffff1681525050806040015189848151811061083a57610839611f4e565b5b6020026020010181905250806060015188848151811061085d5761085c611f4e565b5b602002602001018190525080608001518784815181106108805761087f611f4e565b5b6020026020010181815250505f8684815181106108a05761089f611f4e565b5b6020026020010181815250505f8584815181106108c0576108bf611f4e565b5b60200260200101818152505082806108d790611eaa565b935050505b80806108e790611eaa565b915050610531565b50505090919293949596565b5f806060805f805f60015f8981526020019081526020015f206040518060c00160405290815f82015f9054906101000a900473ffffffffffffffffffffffffffffffffffffffff1673ffffffffffffffffffffffffffffffffffffffff1673ffffffffffffffffffffffffffffffffffffffff168152602001600182015f9054906101000a900473ffffffffffffffffffffffffffffffffffffffff1673ffffffffffffffffffffffffffffffffffffffff1673ffffffffffffffffffffffffffffffffffffffff1681526020016002820180546109d890611f1e565b80601f0160208091040260200160405190810160405280929190818152602001828054610a0490611f1e565b8015610a4f5780601f10610a2657610100808354040283529160200191610a4f565b820191905f5260205f20905b815481529060010190602001808311610a3257829003601f168201915b50505050508152602001600382018054610a6890611f1e565b80601f0160208091040260200160405190810160405280929190818152602001828054610a9490611f1e565b8015610adf5780601f10610ab657610100808354040283529160200191610adf565b820191905f5260205f20905b815481529060010190602001808311610ac257829003601f168201915b5050505050815260200160048201548152602001600582015f9054906101000a900460ff166004811115610b1657610b15611b1d565b5b6004811115610b2857610b27611b1d565b5b815250509050805f015181602001518260400151836060015184608001518560a001519650965096509650965096505091939550919395565b6002602052815f5260405f208181548110610b7a575f80fd5b905f5260205f20015f91509150505481565b5f60015f8381526020019081526020015f209050806001015f9054906101000a900473ffffffffffffffffffffffffffffffffffffffff1673ffffffffffffffffffffffffffffffffffffffff163373ffffffffffffffffffffffffffffffffffffffff1614610c31576040517f08c379a0000000000000000000000000000000000000000000000000000000008152600401610c2890611fc5565b60405180910390fd5b60026004811115610c4557610c44611b1d565b5b816005015f9054906101000a900460ff166004811115610c6857610c67611b1d565b5b14610ca8576040517f08c379a0000000000000000000000000000000000000000000000000000000008152600401610c9f9061202d565b60405180910390fd5b6003816005015f6101000a81548160ff02191690836004811115610ccf57610cce611b1d565b5b02179055507f63e5b4bf8bc6c9cf867e6cc4d53f654c1f0365d975100e04129de6383f8c4b2382604051610d039190611c65565b60405180910390a15050565b6001602052805f5260405f205f91509050805f015f9054906101000a900473ffffffffffffffffffffffffffffffffffffffff1690806001015f9054906101000a900473ffffffffffffffffffffffffffffffffffffffff1690806002018054610d7890611f1e565b80601f0160208091040260200160405190810160405280929190818152602001828054610da490611f1e565b8015610def5780601f10610dc657610100808354040283529160200191610def565b820191905f5260205f20905b815481529060010190602001808311610dd257829003601f168201915b505050505090806003018054610e0490611f1e565b80601f0160208091040260200160405190810160405280929190818152602001828054610e3090611f1e565b8015610e7b5780601f10610e5257610100808354040283529160200191610e7b565b820191905f5260205f20905b815481529060010190602001808311610e5e57829003601f168201915b505050505090806004015490806005015f9054906101000a900460ff16905086565b5f8060015f805481526020019081526020015f20905033815f015f6101000a81548173ffffffffffffffffffffffffffffffffffffffff021916908373ffffffffffffffffffffffffffffffffffffffff16021790555084816002019081610f0591906121e8565b5083816003019081610f1791906121e8565b508281600401819055505f816005015f6101000a81548160ff02191690836004811115610f4757610f46611b1d565b5b021790555060025f3373ffffffffffffffffffffffffffffffffffffffff1673ffffffffffffffffffffffffffffffffffffffff1681526020019081526020015f205f54908060018154018082558091505060019003905f5260205f20015f90919091909150557f6df8a9fd56bc145c1b2254aea11dc4363ff4440765898a9bfeabe8b5d2fbce115f5433878787604051610fe69594939291906122b7565b60405180910390a15f80815480929190610fff90611eaa565b919050555060015f546110129190612316565b9150509392505050565b60605f60025f8473ffffffffffffffffffffffffffffffffffffffff1673ffffffffffffffffffffffffffffffffffffffff1681526020019081526020015f208054905011156110f75760025f8373ffffffffffffffffffffffffffffffffffffffff1673ffffffffffffffffffffffffffffffffffffffff1681526020019081526020015f208054806020026020016040519081016040528092919081815260200182805480156110eb57602002820191905f5260205f20905b8154815260200190600101908083116110d7575b50505050509050611184565b60035f8373ffffffffffffffffffffffffffffffffffffffff1673ffffffffffffffffffffffffffffffffffffffff1681526020019081526020015f2080548060200260200160405190810160405280929190818152602001828054801561117c57602002820191905f5260205f20905b815481526020019060010190808311611168575b505050505090505b919050565b6003602052815f5260405f2081815481106111a2575f80fd5b905f5260205f20015f91509150505481565b5f5481565b5f60015f8381526020019081526020015f2090505f60048111156111e0576111df611b1d565b5b816005015f9054906101000a900460ff16600481111561120357611202611b1d565b5b14611243576040517f08c379a000000000000000000000000000000000000000000000000000000000815260040161123a90612393565b60405180910390fd5b33816001015f6101000a81548173ffffffffffffffffffffffffffffffffffffffff021916908373ffffffffffffffffffffffffffffffffffffffff1602179055506001816005015f6101000a81548160ff021916908360048111156112ac576112ab611b1d565b5b021790555060035f3373ffffffffffffffffffffffffffffffffffffffff1673ffffffffffffffffffffffffffffffffffffffff1681526020019081526020015f2082908060018154018082558091505060019003905f5260205f20015f90919091909150557fcb890c33fd108e736800f548e422bb587b58384dea0bbc2849e4b904ce455bbc82336040516113439291906123b1565b60405180910390a15050565b5f60015f8381526020019081526020015f209050806001015f9054906101000a900473ffffffffffffffffffffffffffffffffffffffff1673ffffffffffffffffffffffffffffffffffffffff163373ffffffffffffffffffffffffffffffffffffffff16146113f4576040517f08c379a00000000000000000000000000000000000000000000000000000000081526004016113eb90612422565b60405180910390fd5b6001600481111561140857611407611b1d565b5b816005015f9054906101000a900460ff16600481111561142b5761142a611b1d565b5b1461146b576040517f08c379a00000000000000000000000000000000000000000000000000000000081526004016114629061248a565b60405180910390fd5b6002816005015f6101000a81548160ff0219169083600481111561149257611491611b1d565b5b02179055507f1caef5aba80487f3eb64526a934f8250dd2591d249cd4f14756041c0ff93607d826040516114c69190611c65565b60405180910390a15050565b5f60015f8381526020019081526020015f2090505f60048111156114f9576114f8611b1d565b5b816005015f9054906101000a900460ff16600481111561151c5761151b611b1d565b5b1461155c576040517f08c379a0000000000000000000000000000000000000000000000000000000008152600401611553906124f2565b60405180910390fd5b6004816005015f6101000a81548160ff0219169083600481111561158357611582611b1d565b5b021790555033816001015f6101000a81548173ffffffffffffffffffffffffffffffffffffffff021916908373ffffffffffffffffffffffffffffffffffffffff1602179055507f1ad43faea15d69bd2aef718e55e6a441b54199e561b3ef908bcada47f8542ed382336040516115fb9291906123b1565b60405180910390a15050565b5f81519050919050565b5f82825260208201905092915050565b5f819050602082019050919050565b5f819050919050565b61164281611630565b82525050565b5f6116538383611639565b60208301905092915050565b5f602082019050919050565b5f61167582611607565b61167f8185611611565b935061168a83611621565b805f5b838110156116ba5781516116a18882611648565b97506116ac8361165f565b92505060018101905061168d565b5085935050505092915050565b5f81519050919050565b5f82825260208201905092915050565b5f819050602082019050919050565b5f73ffffffffffffffffffffffffffffffffffffffff82169050919050565b5f611719826116f0565b9050919050565b6117298161170f565b82525050565b5f61173a8383611720565b60208301905092915050565b5f602082019050919050565b5f61175c826116c7565b61176681856116d1565b9350611771836116e1565b805f5b838110156117a1578151611788888261172f565b975061179383611746565b925050600181019050611774565b5085935050505092915050565b5f81519050919050565b5f82825260208201905092915050565b5f819050602082019050919050565b5f81519050919050565b5f82825260208201905092915050565b5f5b8381101561180e5780820151818401526020810190506117f3565b5f8484015250505050565b5f601f19601f8301169050919050565b5f611833826117d7565b61183d81856117e1565b935061184d8185602086016117f1565b61185681611819565b840191505092915050565b5f61186c8383611829565b905092915050565b5f602082019050919050565b5f61188a826117ae565b61189481856117b8565b9350836020820285016118a6856117c8565b805f5b858110156118e157848403895281516118c28582611861565b94506118cd83611874565b925060208a019950506001810190506118a9565b50829750879550505050505092915050565b5f81519050919050565b5f82825260208201905092915050565b5f819050602082019050919050565b5f819050919050565b61192e8161191c565b82525050565b5f61193f8383611925565b60208301905092915050565b5f602082019050919050565b5f611961826118f3565b61196b81856118fd565b93506119768361190d565b805f5b838110156119a657815161198d8882611934565b97506119988361194b565b925050600181019050611979565b5085935050505092915050565b5f60e0820190508181035f8301526119cb818a61166b565b905081810360208301526119df8189611752565b905081810360408301526119f38188611880565b90508181036060830152611a078187611880565b90508181036080830152611a1b818661166b565b905081810360a0830152611a2f8185611957565b905081810360c0830152611a438184611957565b905098975050505050505050565b5f604051905090565b5f80fd5b5f80fd5b611a6b81611630565b8114611a75575f80fd5b50565b5f81359050611a8681611a62565b92915050565b5f60208284031215611aa157611aa0611a5a565b5b5f611aae84828501611a78565b91505092915050565b611ac08161170f565b82525050565b5f82825260208201905092915050565b5f611ae0826117d7565b611aea8185611ac6565b9350611afa8185602086016117f1565b611b0381611819565b840191505092915050565b611b1781611630565b82525050565b7f4e487b71000000000000000000000000000000000000000000000000000000005f52602160045260245ffd5b60058110611b5b57611b5a611b1d565b5b50565b5f819050611b6b82611b4a565b919050565b5f611b7a82611b5e565b9050919050565b611b8a81611b70565b82525050565b5f60c082019050611ba35f830189611ab7565b611bb06020830188611ab7565b8181036040830152611bc28187611ad6565b90508181036060830152611bd68186611ad6565b9050611be56080830185611b0e565b611bf260a0830184611b81565b979650505050505050565b611c068161170f565b8114611c10575f80fd5b50565b5f81359050611c2181611bfd565b92915050565b5f8060408385031215611c3d57611c3c611a5a565b5b5f611c4a85828601611c13565b9250506020611c5b85828601611a78565b9150509250929050565b5f602082019050611c785f830184611b0e565b92915050565b5f80fd5b5f80fd5b7f4e487b71000000000000000000000000000000000000000000000000000000005f52604160045260245ffd5b611cbc82611819565b810181811067ffffffffffffffff82111715611cdb57611cda611c86565b5b80604052505050565b5f611ced611a51565b9050611cf98282611cb3565b919050565b5f67ffffffffffffffff821115611d1857611d17611c86565b5b611d2182611819565b9050602081019050919050565b828183375f83830152505050565b5f611d4e611d4984611cfe565b611ce4565b905082815260208101848484011115611d6a57611d69611c82565b5b611d75848285611d2e565b509392505050565b5f82601f830112611d9157611d90611c7e565b5b8135611da1848260208601611d3c565b91505092915050565b5f805f60608486031215611dc157611dc0611a5a565b5b5f84013567ffffffffffffffff811115611dde57611ddd611a5e565b5b611dea86828701611d7d565b935050602084013567ffffffffffffffff811115611e0b57611e0a611a5e565b5b611e1786828701611d7d565b9250506040611e2886828701611a78565b9150509250925092565b5f60208284031215611e4757611e46611a5a565b5b5f611e5484828501611c13565b91505092915050565b5f6020820190508181035f830152611e75818461166b565b905092915050565b7f4e487b71000000000000000000000000000000000000000000000000000000005f52601160045260245ffd5b5f611eb482611630565b91507fffffffffffffffffffffffffffffffffffffffffffffffffffffffffffffffff8203611ee657611ee5611e7d565b5b600182019050919050565b7f4e487b71000000000000000000000000000000000000000000000000000000005f52602260045260245ffd5b5f6002820490506001821680611f3557607f821691505b602082108103611f4857611f47611ef1565b5b50919050565b7f4e487b71000000000000000000000000000000000000000000000000000000005f52603260045260245ffd5b7f4f6e6c79206472697665722063616e20656e64000000000000000000000000005f82015250565b5f611faf601383611ac6565b9150611fba82611f7b565b602082019050919050565b5f6020820190508181035f830152611fdc81611fa3565b9050919050565b7f52696465206e6f742073746172746564000000000000000000000000000000005f82015250565b5f612017601083611ac6565b915061202282611fe3565b602082019050919050565b5f6020820190508181035f8301526120448161200b565b9050919050565b5f819050815f5260205f209050919050565b5f6020601f8301049050919050565b5f82821b905092915050565b5f600883026120a77fffffffffffffffffffffffffffffffffffffffffffffffffffffffffffffffff8261206c565b6120b1868361206c565b95508019841693508086168417925050509392505050565b5f819050919050565b5f6120ec6120e76120e284611630565b6120c9565b611630565b9050919050565b5f819050919050565b612105836120d2565b612119612111826120f3565b848454612078565b825550505050565b5f90565b61212d612121565b6121388184846120fc565b505050565b5b8181101561215b576121505f82612125565b60018101905061213e565b5050565b601f8211156121a0576121718161204b565b61217a8461205d565b81016020851015612189578190505b61219d6121958561205d565b83018261213d565b50505b505050565b5f82821c905092915050565b5f6121c05f19846008026121a5565b1980831691505092915050565b5f6121d883836121b1565b9150826002028217905092915050565b6121f1826117d7565b67ffffffffffffffff81111561220a57612209611c86565b5b6122148254611f1e565b61221f82828561215f565b5f60209050601f831160018114612250575f841561223e578287015190505b61224885826121cd565b8655506122af565b601f19841661225e8661204b565b5f5b8281101561228557848901518255600182019150602085019450602081019050612260565b868310156122a2578489015161229e601f8916826121b1565b8355505b6001600288020188555050505b505050505050565b5f60a0820190506122ca5f830188611b0e565b6122d76020830187611ab7565b81810360408301526122e98186611ad6565b905081810360608301526122fd8185611ad6565b905061230c6080830184611b0e565b9695505050505050565b5f61232082611630565b915061232b83611630565b925082820390508181111561234357612342611e7d565b5b92915050565b7f52696465206e6f7420617661696c61626c6500000000000000000000000000005f82015250565b5f61237d601283611ac6565b915061238882612349565b602082019050919050565b5f6020820190508181035f8301526123aa81612371565b9050919050565b5f6040820190506123c45f830185611b0e565b6123d16020830184611ab7565b9392505050565b7f4f6e6c79206472697665722063616e20737461727400000000000000000000005f82015250565b5f61240c601583611ac6565b9150612417826123d8565b602082019050919050565b5f6020820190508181035f83015261243981612400565b9050919050565b7f52696465206e6f742061636365707465640000000000000000000000000000005f82015250565b5f612474601183611ac6565b915061247f82612440565b602082019050919050565b5f6020820190508181035f8301526124a181612468565b9050919050565b7f52696465206e6f7420617661696c61626c6520666f72206465636c696e696e675f82015250565b5f6124dc602083611ac6565b91506124e7826124a8565b602082019050919050565b5f6020820190508181035f830152612509816124d0565b905091905056fea264697066735822122061a9cd08db331b8b3e2bfc232f85711d31dff759c9bb69671392347891d953a364736f6c63430008150033",
  "immutableReferences": {},
  "source": "// SPDX-License-Identifier: MIT\r\npragma solidity ^0.8.0;\r\n\r\ncontract RideManager {\r\n    enum RideStatus { Requested, Accepted, Started, Completed, Declined }\r\n\r\n    struct Ride {\r\n        address rider;\r\n        address driver;\r\n        string origin;\r\n        string destination;\r\n        uint cost;\r\n        RideStatus status;\r\n    }\r\n\r\n    uint public rideCount = 0;\r\n    mapping(uint => Ride) public rides;\r\n    mapping(address => uint[]) public riderRides;\r\n    mapping(address => uint[]) public driverRides;\r\n\r\n    event RideRequested(uint rideId, address rider, string origin, string destination, uint cost);\r\n    event RideAccepted(uint rideId, address driver);\r\n    event RideStarted(uint rideId);\r\n    event RideCompleted(uint rideId);\r\n    event RideDeclined(uint rideId, address driver);\r\n\r\n    function requestRide(string memory origin, string memory destination, uint cost) public returns (uint) {\r\n        Ride storage r = rides[rideCount];\r\n        r.rider = msg.sender;\r\n        r.origin = origin;\r\n        r.destination = destination;\r\n        r.cost = cost;\r\n        r.status = RideStatus.Requested;\r\n\r\n        riderRides[msg.sender].push(rideCount);\r\n\r\n        emit RideRequested(rideCount, msg.sender, origin, destination, cost);\r\n        rideCount++;\r\n        return rideCount - 1;\r\n    }\r\n\r\n    function acceptRide(uint rideId) public {\r\n        Ride storage r = rides[rideId];\r\n        require(r.status == RideStatus.Requested, \"Ride not available\");\r\n        r.driver = msg.sender;\r\n        r.status = RideStatus.Accepted;\r\n\r\n        driverRides[msg.sender].push(rideId);\r\n\r\n        emit RideAccepted(rideId, msg.sender);\r\n    }\r\n\r\n    function startRide(uint rideId) public {\r\n        Ride storage r = rides[rideId];\r\n        require(msg.sender == r.driver, \"Only driver can start\");\r\n        require(r.status == RideStatus.Accepted, \"Ride not accepted\");\r\n        r.status = RideStatus.Started;\r\n\r\n        emit RideStarted(rideId);\r\n    }\r\n\r\n    function endRide(uint rideId) public {\r\n        Ride storage r = rides[rideId];\r\n        require(msg.sender == r.driver, \"Only driver can end\");\r\n        require(r.status == RideStatus.Started, \"Ride not started\");\r\n        r.status = RideStatus.Completed;\r\n\r\n        emit RideCompleted(rideId);\r\n    }\r\n\r\n    function declineRide(uint rideId) public {\r\n        Ride storage r = rides[rideId];\r\n        require(r.status == RideStatus.Requested, \"Ride not available for declining\");\r\n        r.status = RideStatus.Declined;\r\n        r.driver = msg.sender;\r\n\r\n        emit RideDeclined(rideId, msg.sender);\r\n    }\r\n\r\n    function getRideDetails(uint rideId) public view returns (\r\n        address, address, string memory, string memory, uint, RideStatus\r\n    ) {\r\n        Ride memory r = rides[rideId];\r\n        return (r.rider, r.driver, r.origin, r.destination, r.cost, r.status);\r\n    }\r\n\r\n    function getActiveRides(address user) public view returns (uint[] memory) {\r\n    if (riderRides[user].length > 0) {\r\n        return riderRides[user];\r\n    } else {\r\n        return driverRides[user];\r\n    }\r\n}\r\n\r\nfunction getActiveRideRequests() public view returns (\r\n    uint256[] memory rideIds,\r\n    address[] memory riders,\r\n    string[] memory pickups,\r\n    string[] memory destinations,\r\n    uint256[] memory fares,\r\n    int256[] memory pickupLats,\r\n    int256[] memory pickupLngs\r\n) {\r\n    // Count pending rides first\r\n    uint256 pendingCount = 0;\r\n    for (uint256 i = 0; i < rideCount; i++) {\r\n        if (rides[i].status == RideStatus.Requested) {\r\n            pendingCount++;\r\n        }\r\n    }\r\n\r\n    // Initialize arrays\r\n    rideIds = new uint256[](pendingCount);\r\n    riders = new address[](pendingCount);\r\n    pickups = new string[](pendingCount);\r\n    destinations = new string[](pendingCount);\r\n    fares = new uint256[](pendingCount);\r\n    pickupLats = new int256[](pendingCount);\r\n    pickupLngs = new int256[](pendingCount);\r\n\r\n    // Fill arrays with pending ride data\r\n    uint256 index = 0;\r\n    for (uint256 i = 0; i < rideCount; i++) {\r\n        if (rides[i].status == RideStatus.Requested) {\r\n            Ride memory r = rides[i];\r\n            rideIds[index] = i;\r\n            riders[index] = r.rider;\r\n            pickups[index] = r.origin;\r\n            destinations[index] = r.destination;\r\n            fares[index] = r.cost;\r\n            pickupLats[index] = 0; // Assuming pickupLat is not available in the struct\r\n            pickupLngs[index] = 0; // Assuming pickupLng is not available in the struct\r\n            index++;\r\n        }\r\n    }\r\n}\r\n}\r\n",
  "sourcePath": "C:\\Users\\panch\\OneDrive\\Documents\\GitHub\\196-BlockChain\\contracts\\RideManager.sol",
  "compiler": {
    "name": "solc",
    "version": "0.8.21+commit.d9974bed.Emscripten.clang"
  },
  "schemaVersion": "3.4.16",
  "updatedAt": "2025-04-26T03:25:40.229Z",
  "networkType": "ethereum",
  "devdoc": {
    "kind": "dev",
    "methods": {},
    "version": 1
  },
  "userdoc": {
    "kind": "user",
    "methods": {},
    "version": 1
  }
}