{
  "contractName": "RideManager",
  "abi": [
    {
      "anonymous": false,
      "inputs": [
        {
          "indexed": false,
          "internalType": "uint256",
          "name": "rideId",
          "type": "uint256"
        },
        {
          "indexed": false,
          "internalType": "address",
          "name": "driver",
          "type": "address"
        }
      ],
      "name": "RideAccepted",
      "type": "event"
    },
    {
      "anonymous": false,
      "inputs": [
        {
          "indexed": false,
          "internalType": "uint256",
          "name": "rideId",
          "type": "uint256"
        }
      ],
      "name": "RideCompleted",
      "type": "event"
    },
    {
      "anonymous": false,
      "inputs": [
        {
          "indexed": false,
          "internalType": "uint256",
          "name": "rideId",
          "type": "uint256"
        },
        {
          "indexed": false,
          "internalType": "address",
          "name": "rider",
          "type": "address"
        },
        {
          "indexed": false,
          "internalType": "string",
          "name": "origin",
          "type": "string"
        },
        {
          "indexed": false,
          "internalType": "string",
          "name": "destination",
          "type": "string"
        },
        {
          "indexed": false,
          "internalType": "uint256",
          "name": "cost",
          "type": "uint256"
        }
      ],
      "name": "RideRequested",
      "type": "event"
    },
    {
      "anonymous": false,
      "inputs": [
        {
          "indexed": false,
          "internalType": "uint256",
          "name": "rideId",
          "type": "uint256"
        }
      ],
      "name": "RideStarted",
      "type": "event"
    },
    {
      "inputs": [
        {
          "internalType": "address",
          "name": "",
          "type": "address"
        },
        {
          "internalType": "uint256",
          "name": "",
          "type": "uint256"
        }
      ],
      "name": "driverRides",
      "outputs": [
        {
          "internalType": "uint256",
          "name": "",
          "type": "uint256"
        }
      ],
      "stateMutability": "view",
      "type": "function",
      "constant": true
    },
    {
      "inputs": [],
      "name": "rideCount",
      "outputs": [
        {
          "internalType": "uint256",
          "name": "",
          "type": "uint256"
        }
      ],
      "stateMutability": "view",
      "type": "function",
      "constant": true
    },
    {
      "inputs": [
        {
          "internalType": "address",
          "name": "",
          "type": "address"
        },
        {
          "internalType": "uint256",
          "name": "",
          "type": "uint256"
        }
      ],
      "name": "riderRides",
      "outputs": [
        {
          "internalType": "uint256",
          "name": "",
          "type": "uint256"
        }
      ],
      "stateMutability": "view",
      "type": "function",
      "constant": true
    },
    {
      "inputs": [
        {
          "internalType": "uint256",
          "name": "",
          "type": "uint256"
        }
      ],
      "name": "rides",
      "outputs": [
        {
          "internalType": "address",
          "name": "rider",
          "type": "address"
        },
        {
          "internalType": "address",
          "name": "driver",
          "type": "address"
        },
        {
          "internalType": "string",
          "name": "origin",
          "type": "string"
        },
        {
          "internalType": "string",
          "name": "destination",
          "type": "string"
        },
        {
          "internalType": "uint256",
          "name": "cost",
          "type": "uint256"
        },
        {
          "internalType": "enum RideManager.RideStatus",
          "name": "status",
          "type": "uint8"
        }
      ],
      "stateMutability": "view",
      "type": "function",
      "constant": true
    },
    {
      "inputs": [
        {
          "internalType": "string",
          "name": "origin",
          "type": "string"
        },
        {
          "internalType": "string",
          "name": "destination",
          "type": "string"
        },
        {
          "internalType": "uint256",
          "name": "cost",
          "type": "uint256"
        }
      ],
      "name": "requestRide",
      "outputs": [
        {
          "internalType": "uint256",
          "name": "",
          "type": "uint256"
        }
      ],
      "stateMutability": "nonpayable",
      "type": "function"
    },
    {
      "inputs": [
        {
          "internalType": "uint256",
          "name": "rideId",
          "type": "uint256"
        }
      ],
      "name": "acceptRide",
      "outputs": [],
      "stateMutability": "nonpayable",
      "type": "function"
    },
    {
      "inputs": [
        {
          "internalType": "uint256",
          "name": "rideId",
          "type": "uint256"
        }
      ],
      "name": "startRide",
      "outputs": [],
      "stateMutability": "nonpayable",
      "type": "function"
    },
    {
      "inputs": [
        {
          "internalType": "uint256",
          "name": "rideId",
          "type": "uint256"
        }
      ],
      "name": "endRide",
      "outputs": [],
      "stateMutability": "nonpayable",
      "type": "function"
    },
    {
      "inputs": [
        {
          "internalType": "uint256",
          "name": "rideId",
          "type": "uint256"
        }
      ],
      "name": "getRideDetails",
      "outputs": [
        {
          "internalType": "address",
          "name": "",
          "type": "address"
        },
        {
          "internalType": "address",
          "name": "",
          "type": "address"
        },
        {
          "internalType": "string",
          "name": "",
          "type": "string"
        },
        {
          "internalType": "string",
          "name": "",
          "type": "string"
        },
        {
          "internalType": "uint256",
          "name": "",
          "type": "uint256"
        },
        {
          "internalType": "enum RideManager.RideStatus",
          "name": "",
          "type": "uint8"
        }
      ],
      "stateMutability": "view",
      "type": "function",
      "constant": true
    },
    {
      "inputs": [
        {
          "internalType": "address",
          "name": "user",
          "type": "address"
        }
      ],
      "name": "getActiveRides",
      "outputs": [
        {
          "internalType": "uint256[]",
          "name": "",
          "type": "uint256[]"
        }
      ],
      "stateMutability": "view",
      "type": "function",
      "constant": true
    }
  ],
  "bytecode": "0x60806040525f8055348015610012575f80fd5b506119a5806100205f395ff3fe608060405234801561000f575f80fd5b506004361061009c575f3560e01c806365a250061161006457806365a2500614610186578063b079dae1146101b6578063b47c1883146101e6578063c51562cb14610204578063e9c14b1e146102205761009c565b80631d6be93c146100a0578063358d588c146100d557806350a548fc146101055780635205f112146101215780635a4d1b2e14610156575b5f80fd5b6100ba60048036038101906100b59190610e57565b61023c565b6040516100cc96959493929190610fcd565b60405180910390f35b6100ef60048036038101906100ea9190611064565b6104a2565b6040516100fc91906110a2565b60405180910390f35b61011f600480360381019061011a9190610e57565b6104cd565b005b61013b60048036038101906101369190610e57565b610650565b60405161014d96959493929190610fcd565b60405180910390f35b610170600480360381019061016b91906111e7565b6107de565b60405161017d91906110a2565b60405180910390f35b6101a0600480360381019061019b919061126f565b61095d565b6040516101ad9190611351565b60405180910390f35b6101d060048036038101906101cb9190611064565b610aca565b6040516101dd91906110a2565b60405180910390f35b6101ee610af5565b6040516101fb91906110a2565b60405180910390f35b61021e60048036038101906102199190610e57565b610afa565b005b61023a60048036038101906102359190610e57565b610c90565b005b5f806060805f805f60015f8981526020019081526020015f206040518060c00160405290815f82015f9054906101000a900473ffffffffffffffffffffffffffffffffffffffff1673ffffffffffffffffffffffffffffffffffffffff1673ffffffffffffffffffffffffffffffffffffffff168152602001600182015f9054906101000a900473ffffffffffffffffffffffffffffffffffffffff1673ffffffffffffffffffffffffffffffffffffffff1673ffffffffffffffffffffffffffffffffffffffff1681526020016002820180546103199061139e565b80601f01602080910402602001604051908101604052809291908181526020018280546103459061139e565b80156103905780601f1061036757610100808354040283529160200191610390565b820191905f5260205f20905b81548152906001019060200180831161037357829003601f168201915b505050505081526020016003820180546103a99061139e565b80601f01602080910402602001604051908101604052809291908181526020018280546103d59061139e565b80156104205780601f106103f757610100808354040283529160200191610420565b820191905f5260205f20905b81548152906001019060200180831161040357829003601f168201915b5050505050815260200160048201548152602001600582015f9054906101000a900460ff16600381111561045757610456610f5a565b5b600381111561046957610468610f5a565b5b815250509050805f015181602001518260400151836060015184608001518560a001519650965096509650965096505091939550919395565b6002602052815f5260405f2081815481106104bb575f80fd5b905f5260205f20015f91509150505481565b5f60015f8381526020019081526020015f209050806001015f9054906101000a900473ffffffffffffffffffffffffffffffffffffffff1673ffffffffffffffffffffffffffffffffffffffff163373ffffffffffffffffffffffffffffffffffffffff1614610572576040517f08c379a000000000000000000000000000000000000000000000000000000000815260040161056990611418565b60405180910390fd5b6002600381111561058657610585610f5a565b5b816005015f9054906101000a900460ff1660038111156105a9576105a8610f5a565b5b146105e9576040517f08c379a00000000000000000000000000000000000000000000000000000000081526004016105e090611480565b60405180910390fd5b6003816005015f6101000a81548160ff021916908360038111156106105761060f610f5a565b5b02179055507f63e5b4bf8bc6c9cf867e6cc4d53f654c1f0365d975100e04129de6383f8c4b238260405161064491906110a2565b60405180910390a15050565b6001602052805f5260405f205f91509050805f015f9054906101000a900473ffffffffffffffffffffffffffffffffffffffff1690806001015f9054906101000a900473ffffffffffffffffffffffffffffffffffffffff16908060020180546106b99061139e565b80601f01602080910402602001604051908101604052809291908181526020018280546106e59061139e565b80156107305780601f1061070757610100808354040283529160200191610730565b820191905f5260205f20905b81548152906001019060200180831161071357829003601f168201915b5050505050908060030180546107459061139e565b80601f01602080910402602001604051908101604052809291908181526020018280546107719061139e565b80156107bc5780601f10610793576101008083540402835291602001916107bc565b820191905f5260205f20905b81548152906001019060200180831161079f57829003601f168201915b505050505090806004015490806005015f9054906101000a900460ff16905086565b5f8060015f805481526020019081526020015f20905033815f015f6101000a81548173ffffffffffffffffffffffffffffffffffffffff021916908373ffffffffffffffffffffffffffffffffffffffff16021790555084816002019081610846919061163b565b5083816003019081610858919061163b565b508281600401819055505f816005015f6101000a81548160ff0219169083600381111561088857610887610f5a565b5b021790555060025f3373ffffffffffffffffffffffffffffffffffffffff1673ffffffffffffffffffffffffffffffffffffffff1681526020019081526020015f205f54908060018154018082558091505060019003905f5260205f20015f90919091909150557f6df8a9fd56bc145c1b2254aea11dc4363ff4440765898a9bfeabe8b5d2fbce115f543387878760405161092795949392919061170a565b60405180910390a15f8081548092919061094090611796565b919050555060015f5461095391906117dd565b9150509392505050565b60605f60025f8473ffffffffffffffffffffffffffffffffffffffff1673ffffffffffffffffffffffffffffffffffffffff1681526020019081526020015f20805490501115610a385760025f8373ffffffffffffffffffffffffffffffffffffffff1673ffffffffffffffffffffffffffffffffffffffff1681526020019081526020015f20805480602002602001604051908101604052809291908181526020018280548015610a2c57602002820191905f5260205f20905b815481526020019060010190808311610a18575b50505050509050610ac5565b60035f8373ffffffffffffffffffffffffffffffffffffffff1673ffffffffffffffffffffffffffffffffffffffff1681526020019081526020015f20805480602002602001604051908101604052809291908181526020018280548015610abd57602002820191905f5260205f20905b815481526020019060010190808311610aa9575b505050505090505b919050565b6003602052815f5260405f208181548110610ae3575f80fd5b905f5260205f20015f91509150505481565b5f5481565b5f60015f8381526020019081526020015f2090505f6003811115610b2157610b20610f5a565b5b816005015f9054906101000a900460ff166003811115610b4457610b43610f5a565b5b14610b84576040517f08c379a0000000000000000000000000000000000000000000000000000000008152600401610b7b9061185a565b60405180910390fd5b33816001015f6101000a81548173ffffffffffffffffffffffffffffffffffffffff021916908373ffffffffffffffffffffffffffffffffffffffff1602179055506001816005015f6101000a81548160ff02191690836003811115610bed57610bec610f5a565b5b021790555060035f3373ffffffffffffffffffffffffffffffffffffffff1673ffffffffffffffffffffffffffffffffffffffff1681526020019081526020015f2082908060018154018082558091505060019003905f5260205f20015f90919091909150557fcb890c33fd108e736800f548e422bb587b58384dea0bbc2849e4b904ce455bbc8233604051610c84929190611878565b60405180910390a15050565b5f60015f8381526020019081526020015f209050806001015f9054906101000a900473ffffffffffffffffffffffffffffffffffffffff1673ffffffffffffffffffffffffffffffffffffffff163373ffffffffffffffffffffffffffffffffffffffff1614610d35576040517f08c379a0000000000000000000000000000000000000000000000000000000008152600401610d2c906118e9565b60405180910390fd5b60016003811115610d4957610d48610f5a565b5b816005015f9054906101000a900460ff166003811115610d6c57610d6b610f5a565b5b14610dac576040517f08c379a0000000000000000000000000000000000000000000000000000000008152600401610da390611951565b60405180910390fd5b6002816005015f6101000a81548160ff02191690836003811115610dd357610dd2610f5a565b5b02179055507f1caef5aba80487f3eb64526a934f8250dd2591d249cd4f14756041c0ff93607d82604051610e0791906110a2565b60405180910390a15050565b5f604051905090565b5f80fd5b5f80fd5b5f819050919050565b610e3681610e24565b8114610e40575f80fd5b50565b5f81359050610e5181610e2d565b92915050565b5f60208284031215610e6c57610e6b610e1c565b5b5f610e7984828501610e43565b91505092915050565b5f73ffffffffffffffffffffffffffffffffffffffff82169050919050565b5f610eab82610e82565b9050919050565b610ebb81610ea1565b82525050565b5f81519050919050565b5f82825260208201905092915050565b5f5b83811015610ef8578082015181840152602081019050610edd565b5f8484015250505050565b5f601f19601f8301169050919050565b5f610f1d82610ec1565b610f278185610ecb565b9350610f37818560208601610edb565b610f4081610f03565b840191505092915050565b610f5481610e24565b82525050565b7f4e487b71000000000000000000000000000000000000000000000000000000005f52602160045260245ffd5b60048110610f9857610f97610f5a565b5b50565b5f819050610fa882610f87565b919050565b5f610fb782610f9b565b9050919050565b610fc781610fad565b82525050565b5f60c082019050610fe05f830189610eb2565b610fed6020830188610eb2565b8181036040830152610fff8187610f13565b905081810360608301526110138186610f13565b90506110226080830185610f4b565b61102f60a0830184610fbe565b979650505050505050565b61104381610ea1565b811461104d575f80fd5b50565b5f8135905061105e8161103a565b92915050565b5f806040838503121561107a57611079610e1c565b5b5f61108785828601611050565b925050602061109885828601610e43565b9150509250929050565b5f6020820190506110b55f830184610f4b565b92915050565b5f80fd5b5f80fd5b7f4e487b71000000000000000000000000000000000000000000000000000000005f52604160045260245ffd5b6110f982610f03565b810181811067ffffffffffffffff82111715611118576111176110c3565b5b80604052505050565b5f61112a610e13565b905061113682826110f0565b919050565b5f67ffffffffffffffff821115611155576111546110c3565b5b61115e82610f03565b9050602081019050919050565b828183375f83830152505050565b5f61118b6111868461113b565b611121565b9050828152602081018484840111156111a7576111a66110bf565b5b6111b284828561116b565b509392505050565b5f82601f8301126111ce576111cd6110bb565b5b81356111de848260208601611179565b91505092915050565b5f805f606084860312156111fe576111fd610e1c565b5b5f84013567ffffffffffffffff81111561121b5761121a610e20565b5b611227868287016111ba565b935050602084013567ffffffffffffffff81111561124857611247610e20565b5b611254868287016111ba565b925050604061126586828701610e43565b9150509250925092565b5f6020828403121561128457611283610e1c565b5b5f61129184828501611050565b91505092915050565b5f81519050919050565b5f82825260208201905092915050565b5f819050602082019050919050565b6112cc81610e24565b82525050565b5f6112dd83836112c3565b60208301905092915050565b5f602082019050919050565b5f6112ff8261129a565b61130981856112a4565b9350611314836112b4565b805f5b8381101561134457815161132b88826112d2565b9750611336836112e9565b925050600181019050611317565b5085935050505092915050565b5f6020820190508181035f83015261136981846112f5565b905092915050565b7f4e487b71000000000000000000000000000000000000000000000000000000005f52602260045260245ffd5b5f60028204905060018216806113b557607f821691505b6020821081036113c8576113c7611371565b5b50919050565b7f4f6e6c79206472697665722063616e20656e64000000000000000000000000005f82015250565b5f611402601383610ecb565b915061140d826113ce565b602082019050919050565b5f6020820190508181035f83015261142f816113f6565b9050919050565b7f52696465206e6f742073746172746564000000000000000000000000000000005f82015250565b5f61146a601083610ecb565b915061147582611436565b602082019050919050565b5f6020820190508181035f8301526114978161145e565b9050919050565b5f819050815f5260205f209050919050565b5f6020601f8301049050919050565b5f82821b905092915050565b5f600883026114fa7fffffffffffffffffffffffffffffffffffffffffffffffffffffffffffffffff826114bf565b61150486836114bf565b95508019841693508086168417925050509392505050565b5f819050919050565b5f61153f61153a61153584610e24565b61151c565b610e24565b9050919050565b5f819050919050565b61155883611525565b61156c61156482611546565b8484546114cb565b825550505050565b5f90565b611580611574565b61158b81848461154f565b505050565b5b818110156115ae576115a35f82611578565b600181019050611591565b5050565b601f8211156115f3576115c48161149e565b6115cd846114b0565b810160208510156115dc578190505b6115f06115e8856114b0565b830182611590565b50505b505050565b5f82821c905092915050565b5f6116135f19846008026115f8565b1980831691505092915050565b5f61162b8383611604565b9150826002028217905092915050565b61164482610ec1565b67ffffffffffffffff81111561165d5761165c6110c3565b5b611667825461139e565b6116728282856115b2565b5f60209050601f8311600181146116a3575f8415611691578287015190505b61169b8582611620565b865550611702565b601f1984166116b18661149e565b5f5b828110156116d8578489015182556001820191506020850194506020810190506116b3565b868310156116f557848901516116f1601f891682611604565b8355505b6001600288020188555050505b505050505050565b5f60a08201905061171d5f830188610f4b565b61172a6020830187610eb2565b818103604083015261173c8186610f13565b905081810360608301526117508185610f13565b905061175f6080830184610f4b565b9695505050505050565b7f4e487b71000000000000000000000000000000000000000000000000000000005f52601160045260245ffd5b5f6117a082610e24565b91507fffffffffffffffffffffffffffffffffffffffffffffffffffffffffffffffff82036117d2576117d1611769565b5b600182019050919050565b5f6117e782610e24565b91506117f283610e24565b925082820390508181111561180a57611809611769565b5b92915050565b7f52696465206e6f7420617661696c61626c6500000000000000000000000000005f82015250565b5f611844601283610ecb565b915061184f82611810565b602082019050919050565b5f6020820190508181035f83015261187181611838565b9050919050565b5f60408201905061188b5f830185610f4b565b6118986020830184610eb2565b9392505050565b7f4f6e6c79206472697665722063616e20737461727400000000000000000000005f82015250565b5f6118d3601583610ecb565b91506118de8261189f565b602082019050919050565b5f6020820190508181035f830152611900816118c7565b9050919050565b7f52696465206e6f742061636365707465640000000000000000000000000000005f82015250565b5f61193b601183610ecb565b915061194682611907565b602082019050919050565b5f6020820190508181035f8301526119688161192f565b905091905056fea2646970667358221220296d02edf9b98a981612dfe804cde67ae3a6545a716ffc0fd7a996c0dfae52eb64736f6c63430008150033",
  "immutableReferences": {},
  "source": "// SPDX-License-Identifier: MIT\npragma solidity ^0.8.0;\n\ncontract RideManager {\n    enum RideStatus { Requested, Accepted, Started, Completed }\n\n    struct Ride {\n        address rider;\n        address driver;\n        string origin;\n        string destination;\n        uint cost;\n        RideStatus status;\n    }\n\n    uint public rideCount = 0;\n    mapping(uint => Ride) public rides;\n    mapping(address => uint[]) public riderRides;\n    mapping(address => uint[]) public driverRides;\n\n    event RideRequested(uint rideId, address rider, string origin, string destination, uint cost);\n    event RideAccepted(uint rideId, address driver);\n    event RideStarted(uint rideId);\n    event RideCompleted(uint rideId);\n\n    function requestRide(string memory origin, string memory destination, uint cost) public returns (uint) {\n        Ride storage r = rides[rideCount];\n        r.rider = msg.sender;\n        r.origin = origin;\n        r.destination = destination;\n        r.cost = cost;\n        r.status = RideStatus.Requested;\n\n        riderRides[msg.sender].push(rideCount);\n\n        emit RideRequested(rideCount, msg.sender, origin, destination, cost);\n        rideCount++;\n        return rideCount - 1;\n    }\n\n    function acceptRide(uint rideId) public {\n        Ride storage r = rides[rideId];\n        require(r.status == RideStatus.Requested, \"Ride not available\");\n        r.driver = msg.sender;\n        r.status = RideStatus.Accepted;\n\n        driverRides[msg.sender].push(rideId);\n\n        emit RideAccepted(rideId, msg.sender);\n    }\n\n    function startRide(uint rideId) public {\n        Ride storage r = rides[rideId];\n        require(msg.sender == r.driver, \"Only driver can start\");\n        require(r.status == RideStatus.Accepted, \"Ride not accepted\");\n        r.status = RideStatus.Started;\n\n        emit RideStarted(rideId);\n    }\n\n    function endRide(uint rideId) public {\n        Ride storage r = rides[rideId];\n        require(msg.sender == r.driver, \"Only driver can end\");\n        require(r.status == RideStatus.Started, \"Ride not started\");\n        r.status = RideStatus.Completed;\n\n        emit RideCompleted(rideId);\n    }\n\n    function getRideDetails(uint rideId) public view returns (\n        address, address, string memory, string memory, uint, RideStatus\n    ) {\n        Ride memory r = rides[rideId];\n        return (r.rider, r.driver, r.origin, r.destination, r.cost, r.status);\n    }\n\n    function getActiveRides(address user) public view returns (uint[] memory) {\n    if (riderRides[user].length > 0) {\n        return riderRides[user];\n    } else {\n        return driverRides[user];\n    }\n}\n}\n",
  "sourcePath": "/Users/jocelyncamacho/Desktop/196-BlockChain/contracts/RideMangager.sol",
  "compiler": {
    "name": "solc",
    "version": "0.8.21+commit.d9974bed.Emscripten.clang"
  },
  "schemaVersion": "3.4.16",
  "updatedAt": "2025-04-23T01:04:24.409Z",
  "networkType": "ethereum",
  "devdoc": {
    "kind": "dev",
    "methods": {},
    "version": 1
  },
  "userdoc": {
    "kind": "user",
    "methods": {},
    "version": 1
  }
}